:020000040800F2
:1000000070080020E10200086B3C00086538000819
:10001000693C0008B51D0008754400080000000098
:10002000000000000000000000000000293E000861
:10003000691E000800000000153D00086D3E000824
:10004000FB020008FB020008FB020008FB0200089C
:10005000FB020008FB020008FB020008FB0200088C
:10006000FB020008FB020008FB020008FB0200087C
:10007000FB020008FB020008FB020008FB0200086C
:10008000FB020008FB020008FB0200080000000061
:10009000000000000000000000000000FB0200085B
:1000A000FB020008FB020008FB020008FB0200083C
:1000B000FB020008153F0008FB020008FB020008D5
:1000C000FB020008FB020008FB020008FB0200081C
:1000D000FB02000869440008FB0200080000000061
:1000E000FB020008FB020008FB0200080000000001
:1000F000000000000000000000000000FB020008FB
:1001000000000000FB020008FB020008FB020008E0
:1001100000000000000000000000000000000000DF
:10012000FB020008FB020008FB020008FB020008BB
:10013000FB020008000000000000000000000000BA
:10014000000000000000000000000000FB020008AA
:10015000FB020008FB020008B91D0008FB020008B2
:10016000FB020008FB020008000000000000000085
:10017000000000000000000000000000000000007F
:1001800000000000FB02000800000000000000006A
:10019000FB02000800F002F800F092F80AA090E8D4
:1001A000000C82448344AAF10107DA4501D100F032
:1001B00087F8AFF2090EBAE80F0013F0010F18BF6D
:1001C000FB1A43F001031847785C0000985C0000BC
:1001D000103A24BF78C878C1FAD8520724BF30C873
:1001E00030C144BF04680C60704700000023002445
:1001F00000250026103A28BF78C1FBD8520728BF37
:1002000030C148BF0B6070476E2900F0058270292D
:1002100000F04783662905F07E81652905F07B8122
:10022000672905F07881612905F0778103681B0A49
:1002300028BF41F08001692900F0B281642900F0F3
:10024000AF81752900F0AC816F2900F0D482782944
:1002500000F01383E92900F06F82E42900F06C823A
:10026000F52900F06982EF2900F0D182F82900F029
:1002700012830368DB0928BF41F08001632901F084
:100280001980732901F01E80E32901F02980F329E8
:1002900001F02E80002070471FB505F032F901F003
:1002A0007DF804000020002104F080FC401C606008
:1002B0000020002104F064FCE0601FBD10B510BDFB
:1002C00001F03EF81146FFF7E7FF04F0B7FA01F03E
:1002D0001BF903B4FFF7F2FF03BC01F05FF9000064
:1002E0000948804709480047FEE7FEE7FEE7FEE7CA
:1002F000FEE7FEE7FEE7FEE7FEE7FEE70448054906
:10030000054A064B70470000053F000895010008AC
:10031000700200207008002070040020700400208B
:1003200053EA020C00F069802DE9F04B4FF0000613
:10033000002B1FBFB3FA83F503FA05F424FA05F680
:100340005E4012BF1643B2FA82F502FA05F4C5F117
:1003500020051EBF22FA05FC44EA0C04203556EAAB
:10036000044C4FEA144418BF641C4FF000084FF0CF
:100370000009904271EB030C39D3002919BFB1FA7F
:1003800081F701FA07F6B0FA80F700FA07F6C7F12D
:1003900020071EBF20FA07FC46EA0C062037B6FBF2
:1003A000F4FCA7EB0507103F07F01F0BCBF120066D
:1003B0000CFA0BFB2CFA06F644BFB3460026202F9E
:1003C000A4BF5E464FF0000B5BEA060C08BF4FF07F
:1003D000010B19EB0B09ABFB027C48EB0608C01BB9
:1003E00006FB02CC0BFB03CC71EB0C01C1E70B4607
:1003F000024641464846BDE8F08B13B54FF0000079
:100400004FF00001AFF30080BDE81C4070470000D2
:100410001CB50C46064B7B4469460090204600F014
:1004200014F904460020694600F022F920461CBD5C
:100430005702000010B5431C02E010F8011B71B117
:100440008107FAD14FF0013202C88C1A8C4314EAAA
:10045000C211F9D0C01A0A0603D0C01E10BDC01ABE
:1004600010BD0A0401D0801E10BD0902FCD0401E40
:1004700010BD4FF0000200B5134694469646203951
:1004800022BFA0E80C50A0E80C50B1F12001BFF44D
:10049000F7AF090728BFA0E80C5048BF0CC05DF8B3
:1004A00004EB890028BF40F8042B08BF704748BF01
:1004B00020F8022B11F0804F18BF00F8012B704775
:1004C00070477047704710B500F0BAFA006810BD69
:1004D00010B5044600F0B4FA046010BD70B50446CF
:1004E00085690068C10601D5302600E02026C007D6
:1004F00007D070BDD4E9012130469047206A401CE6
:1005000020626D1EF6D570BD70B504468569007811
:10051000C00707D170BDD4E9012120209047206A8F
:10052000401C20626D1EF6D570BD09684A0501D5D4
:1005300040B27047C905FCD500B2704709684A054A
:1005400001D5C0B27047C905FCD580B2704770B5FF
:100550000C460546012A05D02878800600D5EA69B0
:10056000002302E0012305E05B1C934202D2E05C21
:100570000028F9D1A869E618C01AA861286A1844A9
:1005800028622846FFF7AAFF04E0D5E9012114F804
:10059000010B9047B442F8D32846FFF7B5FF70BD72
:1005A0002DE9F0410646002410687529314616A54C
:1005B00010D0FFF7BAFF002802DA404213A507E087
:1005C00031688A0701D512A502E0490704D511A5B3
:1005D000012401E0FFF7B2FF00210A2206F12407FF
:1005E00009E0B0FBF2FCB0FBF2F302FB1C00303080
:1005F00078541846491C0028F3D123462A46304631
:10060000BDE8F04100F065BA000000002D000000D8
:100610002B0000002000000011680268006A5305EA
:1006200001D508700AE0D30501D5088006E013065D
:1006300003D5C217C1E9000200E00860012070473D
:1006400001694A1C02610878704700B58FB0CDE996
:1006500001310021059105497944CDE90310114686
:10066000684600F029F90FB000BD0000E5FFFFFF6C
:100670000A6802F8010B0A60704700002DE9FF5F6D
:1006800015468A460446DFF8AC80F8440027D8E9CE
:1006900000103E46CDE9001010E03AF816106A4608
:1006A00002A800F029FE411C07D02178890603D555
:1006B000E269391891420DD80744761C20788006EB
:1006C00002D5E069B84205DDAE42E6DB3AF8160035
:1006D0000028E2D1A069C01BA0612046FFF7FEFE02
:1006E000D8E90010CDE90010002017E03AF8181002
:1006F0006A4602A800F000FEB0F1FF3F81460BD031
:1007000000250DF1080B05E0D4E901211BF80500D7
:1007100090476D1C4D45F7D308F10100B04280466B
:10072000E4DB206A384420622046FFF7EDFEBDE896
:10073000FF9F0000B65600002DE9F0418046D21D13
:1007400022F007020025D2E90002F52915A614D0EF
:10075000011E72F1000106DA0023D0EB030063EB07
:10076000020211A608E0D8F800108B0701D50FA6E9
:1007700002E0490701D50EA601251146002408F123
:10078000240704E000F060F930323A55641C50EA66
:100790000102F7D12B46324621464046BDE8F041E2
:1007A00000F097B9000000002D0000002B000000B1
:1007B0002000000030B4002100F1240408E002F021
:1007C0000705D208303542EA4372DB086554491CFC
:1007D00052EA0305F3D10468002310A2250707D5C8
:1007E000A40600D421B1C46901230DA2641EC46112
:1007F00030BC00F06EB910B5044621461068FFF712
:100800009DFE02462046BDE810400023D2E7D21DDF
:1008100022F00701D1E90023CCE70000000000002E
:1008200030000000F0B40D460188090502D5214CC6
:100830007C4402E01F4C7C440E34002100F124066D
:1008400008E002F00F071209E75D42EA03721B0994
:100850007754491C52EA0307F3D1027800231207A8
:1008600004D5702D06D009B1022311342246F0BC04
:1008700000F02FB901231034F8E770B504460D4697
:1008800021461068FFF75AFE024629462046BDE879
:1008900070400023C6E7D21D22F00703D3E90023EE
:1008A000C0E70368126843F0200303600823C361B4
:1008B0000023B7E7185500002DE9F05F894604468C
:1008C0004FF0000ADFF874B1FB44C0F820A02046C6
:1008D000E1688847002874D0252806D0D4E9012192
:1008E0009047206A401C2062F1E700265F462046C0
:1008F000E16888472028054607DB312D05D27819A5
:1009000010F8200C08B10643F1E7B00701D526F036
:100910000406C4F81CA00027C4F818A02A2D09D08A
:10092000284603F065FE38B304EB8708303DC8F86D
:10093000185019E059F8041B204604EB8702916116
:10094000E1688847012F054618D1E069002820DAC0
:1009500026F020061DE0D8F8180000EB800005EB1B
:1009600040003038C8F818002046E168884705463E
:1009700003F03EFE0028EED1012F0AD02E2D08D123
:100980002046E16888477F1C0546022F46F0200676
:10099000C4DBA069002803DA404246F00106A061EA
:1009A000F00701D026F010066C2D0BD0682D09D071
:1009B0004C2D39D06A2D35D0742D35D07A2D33D0C9
:1009C00016E038E0E1682F4620468847B8420546E1
:1009D00009D16C2F26D04FF48060E1680643204691
:1009E0008847054604E06C2F1AD04FF48070064308
:1009F0000DB3A5F14100192802D8203546F4006650
:100A00004A462946204626604E46FFF7FDFB80B148
:100A100001280BD0F61D26F0070000F1080956E763
:100A20004020E4E78020D8E70020D6E706F104095B
:100A30004DE7284652E7206ABDE8F09FA854000021
:100A4000004870470C02002030B5B0F10A024FEAAE
:100A5000900E71F100034EEA817EB0EB0E0061EB67
:100A600091014FEA101E4EEA017E10EB0E0041EBA1
:100A700011114FEA102E4EEA016E10EB0E0041EB01
:100A800011214FEA104E4EEA014E10EB0E0041EBE1
:100A90001141401841F100014FEAD00040EA417095
:100AA0004FEAD10110EB80054FEA810444EA9074CB
:100AB00044EB01046D1944EB0404521BA3414FF0B5
:100AC000000348BF0A3200D530BD401C41F100018F
:100AD00030BD2DE9F0470D4699469246044600F197
:100AE00024080168880604D5E06921F0100121601E
:100AF00000E00120A84201DD471B00E00027A169BA
:100B00007A1902EB0900081AA0612078C00602D405
:100B10002046FFF7E3FC002608E0D4E901211AF89B
:100B200006009047206A401C761C20624E45F4DB8C
:100B30002078C0060AD52046FFF7D0FC06E0D4E9AD
:100B4000012130209047206A401C2062381EA7F106
:100B50000107F4DC07E0D4E9012118F8050090470B
:100B6000206A401C2062281EA5F10105F3DC204606
:100B7000FFF7CAFC2078000602D50220BDE8F08706
:100B80000120FBE770472DE9FF4F0C461E464FF052
:100B9000FF378BB0D2E90001DDF860800A908A4609
:100BA000C1F30A5505B93D46002108464FF0000043
:100BB000BAF1000F00F4400005DA00EB80004FF4BA
:100BC000400101EA50004FEA9059B9F1010F00DDF0
:100BD000B9460A9850EA4A000ED044F61050A5F2E1
:100BE000FF3545432F14B8F1000F1ED07542291E62
:100BF0001EDDC9F100021CE0B8F1010F4FF000004A
:100C000001D0302103E0F24305E02154401CB04202
:100C1000FBDB30460022002121540B99C1F80880EB
:100C2000C1E900200FB0BDE8F08FBD1B6D1CDEE7F1
:100C30004A4600DA694206A800F0F4FB06AB93E8E6
:100C4000070003AB83E8070050460A9900F0ADFCAB
:100C50008DE80700A0F500501F3800900398002D84
:100C60000ADD42F21F014A460844002303A903900B
:100C7000684600F016FF09E0A0F500504A461F380C
:100C8000002303A90390684600F020FF8DE80700C9
:100C90000004000C03D04FF0FF30410800E0104684
:100CA000B8F1000F03D00022009215461EE0751E19
:100CB00005D4FFF7C9FE303262556D1EF9D5B34633
:100CC0000122084302D000227F1C04E02078302853
:100CD00001D100227F1E002A099784D01DE0112D2A
:100CE00007DAFFF7B1FE303262556D1C50EA01029F
:100CF000F5D1084302D00098C8B10EE00021681E6B
:100D000005E0235C625C63542254401E491C81420E
:100D1000F7DBAB46A81B401E0990002004F80B002F
:100D20000B98099AC0F80880C0E9002B7AE71126D1
:100D30004FF0000857E72DE9F04F88460446D21DD2
:100D400022F0070191B0D1E90001CDE90A0103F0D9
:100D500092FB02460B98C00F01D02D2007E02068BF
:100D6000810701D52B2002E0202101EAC000032ADF
:100D7000099001D0072A05DB03464146204600F0D2
:100D800011FB0BE12078800601D5E06900E0062028
:100D9000B8F1650F814606D0B8F1660F18D0B8F1EA
:100DA000670F70D131E00020B9F1110F009001DB25
:100DB000112301E009F101030AAA01A90CA8FFF718
:100DC000E2FEDDE90C70002609F10105834647E0EB
:100DD00001204B4600904FF000470AAA01A90CA839
:100DE000FFF7D1FEDDE90DB00C995D46002610B984
:100DF00009F101000D18B9EB050003D4C0F1FF366D
:100E000009F10105A5EB09002BE0B9F1010F01DAA9
:100E10004FF001090020B9F1110F0090484601DDA3
:100E2000112300E003460AAA01A90CA8FFF7ABFEB4
:100E3000DDE90C704D4600268346207800070AD471
:100E4000AB4500DA5D4601A8012D04DD411911F81A
:100E5000011C302907D04F4502DA17F1040F04DADC
:100E6000012082460FE06D1EEEE7002F02DCED1B35
:100E70003E4403E0781CA84200DD7D1CB81B00F155
:100E8000010A4FF000472078000703D4AA4501DB90
:100E90004FF0FF3A0021B7F1004F0DF143088DF8F4
:100EA000431024D002202B23002F01DA7F422D2370
:100EB0000A21021EA0F1010000DC5FB197FBF1FCEA
:100EC00097FBF1F201FB1C7C17460CF1300C08F883
:100ED00001CDEEE7A8F1010003702188090501D5D5
:100EE000452100E06521A0F1010800F8011C0998E6
:100EF0000FA9A1EB0807FF1D00B10120411901EB6B
:100F0000EA70A1693844081A401EA0612078C00622
:100F100002D42046FFF7E2FA099828B1D4E901216A
:100F20009047206A401C20622078C00622D52046C7
:100F3000FFF7D4FA1EE0002E04DBB34502DD01A862
:100F4000805D00E03020D4E901219047206A401CF8
:100F50002062761CAAF101005FEA000A0AD100F0C3
:100F60001DFAC0680168405CD4E901219047206AFD
:100F7000401C2062281EA5F10105DCDC07E0D4E955
:100F8000012118F8010B9047206A401C2062381E8E
:100F9000A7F10107F3DC2046FFF7B6FA032011B0F2
:100FA00041E600002DE9F04F04460D46D21D22F027
:100FB000070089B0D0E900974846394603F05BFA4C
:100FC0000246F80F01D02D2307E02068810701D5E4
:100FD0002B2302E0202101EAC0038DF820300BB161
:100FE000012000E00020032A824601D0072A04DB0A
:100FF0002946204600F0D6F93FE12078800601D44A
:101000000D2500E0E569C7F30A560D2D49DA0021E8
:101010004FEA175B08464FF00000002F00F4400035
:1010200007DA00EB80004FF4400100EBD07001EADA
:1010300060008115012901DD4FF0FF3100224FEAE8
:10104000850CBCF1180F06D31346ACF118004FF015
:101050008052C24003E04FF4801323FA0CF30CF1EA
:101060000C0CBCF1200F04D3ACF1200C09FA0CF0ED
:1010700001E007FA0CF000294FF0004801DD18B933
:101080000FE00ED140450CD319EB02095F4121B9A5
:10109000404502D19F4329EA0209BBEB175F00D00C
:1010A000761C2088000502D57B48784402E07A4807
:1010B0007844193808AA302302F80A30037C0AF170
:1010C0000101002E0AF1020A53546A4602DC4FF075
:1010D000300101E04FF031014FF001088DF80010B0
:1010E00002D0A6F2FF3603E059EA470100D06B4E6A
:1010F000002D02DC2178090704D54FF002082E21CB
:101100008DF80110C44600210BE0C7F303433F01F3
:10111000C35C491C6D1E02F80830052908F101085E
:1011200001DA002DF1DC00210CE000EB1973491C01
:101130001B786D1E082902F808304FEA091908F1DA
:10114000010801DA002DF0DC21688B0602D516E0DB
:10115000A8F10108E04505DD02EB080313F8013CA6
:10116000302BF5D0B8F1000F09DD02EB080313F8BE
:10117000013C2E2B03D1090701D4A8F10108002D51
:1011800005DD3E2102F808106D1E08F10108407CC3
:10119000002E02F8080008F1010804DA2D2076423A
:1011A00002F8080002E02B2002F808000A214FF4A0
:1011B0007A70864208F101080BDB96FBF0F33033BE
:1011C00002F8083096FBF0F308F1010800FB136603
:1011D00001E0642E0CDB642096FBF0F3303302F860
:1011E000083096FBF0F308F1010800FB136601E0FC
:1011F0000A2E06DB96FBF1F0303002F8080008F109
:10120000010896FBF1F001FB1060303002F8080095
:10121000A16908F1010808EB050202EB0A00081AAF
:10122000A0612078C00602D42046FFF757F9216A52
:1012300008AE01EB0A00206204E0D4E9012116F8AF
:10124000010B9047BAF1010AF7D22078C00602D507
:101250002046FFF743F96E4609E016F8010B3E28D9
:101260000FD0D4E901219047206A401C2062B8F1D8
:101270000108F2D22046FFF747F909B00320BDE884
:10128000F08F206A2844206203E0D4E90121302055
:1012900090476D1EEBD3F8E7EA4C000002FCFFFF1D
:1012A00010B5436913B1AFF3008001E0FFF74FF9C8
:1012B000012010BD127800F124010A7000224A704A
:1012C0000122EDE711684FF0FF32E9E710B54369FD
:1012D00013B1AFF3008001E0FFF7D0F9012010BD9A
:1012E000128800F1240182840022C2840122EDE7E9
:1012F00011684FF0FF32E9E770B516460C46054617
:1013000000F044F8036893F80101012806D0FF2C8F
:101310000FD8185D68B101202C7070BDD3F807019B
:101320003246214603F2071303442846BDE87040C5
:1013300018474FF0FF3070BD004870470C02002086
:101340007546FFF7F9FFAE4605006946534620F0A3
:101350000700854618B020B5FEF7D0FFBDE8204055
:101360004FF000064FF000074FF000084FF0000B61
:1013700021F00701AC46ACE8C009ACE8C009ACE814
:10138000C009ACE8C0098D467047000010B500F0F8
:1013900005F8001D10BD00BF15380000004870475B
:1013A0002C0200202DE9F0411F4604460326016867
:1013B000072A01F4006004DB08B116A505E016A5B4
:1013C00003E008B115A500E015A521F0100020608C
:1013D000A069C01EA0610FB1401EA0612046FFF7AA
:1013E0007DF84FB1D4E9012138469047206A401C6E
:1013F0002062C01C206206E0206AFAE7D4E90121DD
:1014000015F8010B9047761EF8D22046FFF77CF8BE
:10141000BDE8F0814E414E006E616E00494E4600BF
:10142000696E66002DE9F047814616468AB0354858
:1014300078440DC88DE80D0032487844801C03AC18
:101440000DC884E80D0041F69B300844372190FB1D
:10145000F1F290FBF1F5A5F1800501FB12041B3CB4
:1014600002D56442012000E00020DFF898A0804609
:101470000027FA44AAF1BE0A0EE0E0070AD032467D
:10148000684607EB470101230AEB810100F01EFBD0
:101490008DE8070064107F1C002CEED1194F7F44AB
:1014A000AE3F19E0E80715D007EB04100DF1180A5C
:1014B00090E80E008AE80E00C068F04201D1981949
:1014C00008903246012306A903A800F0FFFA03ABF7
:1014D00083E807006D10641C002DE3D14FF0010379
:1014E00032466946B8F1000F03A802D000F0D9FADD
:1014F00001E000F0EBFAC9E90001C9F808200AB0E0
:10150000BDE8F087F449000010B50446AFF3008051
:101510002046BDE81040FEF7DCBE00004FF0013C65
:1015200050F8042B51F8043B9A4221D1A2EB0C0352
:10153000934313EACC1317D150F8042B51F8043B12
:101540009A4215D1A2EB0C03934313EACC130BD1AF
:1015500050F8042B51F8043B9A4209D1A2EB0C033A
:10156000934313EACC13DBD04FF00000704700BF69
:10157000D01A01BAB1FA81F101F0180122FA01F092
:10158000CB40C1F12001DBB2C0B2C01A2CFA01F38A
:10159000D11A914311EAC311E6D1704701491820CD
:1015A000ABBEFEE72600020070475FEA400C08BFB2
:1015B00091F0000F4FEA8C234FEAC12243EA5151C8
:1015C0004FEA1C5018BF00F5F0404FEA300018BF3A
:1015D00041F000415FEA6C5C00F02980BCF1FF3F04
:1015E00008BF40F080407047130C06BF12044FF054
:1015F000100C4FF0000C130E04BF12020CF1080C7B
:10160000130F04BF12010CF1040C930F04BF9200DE
:101610000CF1020CD30F04BF52000CF1010C114667
:101620004FF00002A0F11F00A0EB0C00704711F07A
:10163000004F08BF704731F000413FF4D5AF0B0CAD
:1016400006BF09044FF0100C4FF0000C0B0E04BF46
:1016500009020CF1080C0B0F04BF09010CF1040C7A
:101660008B0F04BF89000CF1020CCB0F04BF4900A3
:101670000CF1010CCCF12003A0EB0C0022FA03F3D7
:1016800002FA0CF241EA030100F10100704720F078
:101690007F4C80EA030023F07F47ACEB070303F5A0
:1016A0007C5300F0004003F1FF032DE980494FEA2D
:1016B000154B09B44FEA144325EA0B4E24EA0348BC
:1016C0000FF2042606EB132749083E785FEA320240
:1016D00003FB0667C7F5000707FB06F64FEA54371A
:1016E0004FEAD64606F1020607FB066CCCF1005C19
:1016F0004FEA1C472CEA074C07FB06F40CFB06F5E7
:1017000004EB15464FEA961634BF00204FF0004018
:101710004FEAD13706FB07FC4FEA1C4C0CFB0BF7DA
:10172000D21B03FB0CF761EB07010CFB0EF7B0EBD0
:10173000074072EB17420CFB08F734BFA2EB0742DD
:10174000B2EB074261EB17414FEA0C444FEA9107B5
:1017500006FB07FC4FEA1C4C0CFB0BF7B0EBC74039
:1017600072EB573203FB0CF734BFA2EBC742B2EB6C
:10177000C74261EB57310CFB0EF7B0EBC70072EBC1
:1017800057720CFB08F734BFA2EBC702B2EBC702DB
:1017900061EB5771039F4FEA816141EA921104EBBB
:1017A000CC044FEAD1374FEA826206FB07FC42EADB
:1017B00090124FEA80604FEA1C4C0CFB0BF7D21BD7
:1017C00003FB0CF761EB07010CFB0EF7B0EB0740D6
:1017D00072EB17420CFB08F734BFA2EB0742B2EBE7
:1017E000074261EB17414FEA8C554FEA910704EB32
:1017F0009C2406FB07FC4FEA1C4C0CFB0BF7B0EBE0
:10180000C74072EB573203FB0CF734BFA2EBC74261
:10181000B2EBC74261EB57310CFB0EF7B0EBC700E0
:1018200072EB57720CFB08F734BFA2EBC702B2EBA6
:10183000C70261EB577115EB4C254FEA816141EA14
:1018400092114FEA82624FEAD13742EA901206FBC8
:1018500007FC44F100044FEA80604FEA1C4C0CFB8B
:101860000BF7D21B03FB0CF761EB07010CFB0EF728
:10187000B0EB074072EB17420CFB08F734BFA2EB4A
:101880000742B2EB074261EB174115EB1C154FEA1B
:10189000813141EA92414FEA823242EA90424FEA74
:1018A00080304FEA0C7644F1000448EA03434EEAE4
:1018B0000B484FF0000EB2EB080C71EB030724BF8E
:1018C000624639464EEB0E0E4FF0000B00185241A7
:1018D00049414BEB0B0BB2EB080C71EB03077BF1AF
:1018E000000B24BF624639464EEB0E0E4FF0000B44
:1018F0000018524149414BEB0B0BB2EB080C71EB5A
:1019000003077BF1000B24BF624639464EEB0E0EF7
:1019100051EA020718BF46F0010616EB0E7655F1A4
:10192000000254F1000103D5BDE88901BDE800883B
:10193000BDE88901BDE80048B619524141EB0101FB
:10194000A3F10103704780807F7E7D7C7B7A79786C
:10195000777676757473727171706F6E6E6D6C6C74
:101960006B6A6A6968686766666564646363626116
:101970006160605F5F5E5E5D5D5C5C5B5B5A5A5997
:101980005958585757565655555554545353525203
:101990005251515050504F4F4F4E4E4D4D4D4C4C5B
:1019A0004C4B4B4B4A4A4A494949484848474747A4
:1019B00047464646454545444444444343434342E1
:1019C000424242414141002B9C4630D477002BD00B
:1019D0001CB54FEA370703B44FF010004FF0100169
:1019E000BAF1000F06D0BCF1000FDCBF40F00800D8
:1019F00040F008014FF000000FBCBDE810400BF1B3
:101A0000010BBBF1010F08BF5FEA170722BF12F1FC
:101A1000010211F101014FF0004143F1000300F018
:101A2000004043EA00007047F9D35708D0E746EA80
:101A3000064613F1400F4FEA16461FDD13F1200F43
:101A4000DFBF16430A46002120335B42BED0C3F1FC
:101A5000200746EA064602FA07F74FEA164646EA24
:101A60000706C3F1200722FA03F201FA07F721FA69
:101A700003F14FF0000342EA0702A7E746EA020635
:101A800046EA06464FEA164646EA0106BCBF46EA63
:101A90000646360C4FF000034FF000024FF00001F5
:101AA00094E72DE9804C9A46934670B491E838004B
:101AB00007C831EA400C48BF34EA430C03D5FFF7AE
:101AC000E6FDFFF780FFF0BCBDE8008C2DE9804CFF
:101AD0009A46934670B491E8380007C810F0804FDA
:101AE00008BF13F0804F03D100F005F8FFF76BFF3C
:101AF000F0BCBDE8008C20F07F4780EA030023F0B3
:101B00007F4C07EB0C03A3F57C5300F00040A3F1DE
:101B1000FE0392F0000F00F0B38095F0000F00F08C
:101B200077802DE901494FEA11404FEA144621EA36
:101B3000004800FB06FC24EA064708FB06F607FB04
:101B400008F800FB07F718EB06484CEB164C4FEA79
:101B5000124B18EB07484FEA15464CEB174022EAA8
:101B60000B4E0BFB06FC25EA06470EFB06F607FBB1
:101B70000EFE0BFB07F71EEB064E4CEB164C4FF020
:101B800000061EEB074E4CEB174B18EB0B0840F111
:101B9000000018EB0E0B58EB000840F100008F1A04
:101BA0004FF000013CBFC943661B14BFB5EB040CEA
:101BB00000213CBFC943F61B4FEA17444EEA8E0E84
:101BC00027EA04454FEA1C4704FB07622CEA074C4E
:101BD00005FB07F70CFB05F604FB0CFC16EB0746B0
:101BE00042EB174216EB0C4642EB1C421BEB06067F
:101BF00058EB0202414146EA9E0601D5BDE8018943
:101C0000B619524141EB0101A3F10103BDE801897D
:101C10004FEA14454FEA114724EA054621EA074CEA
:101C200005FB07F406FB07F70CFB06F105FB0CFCB4
:101C300011EB074144EB17444FEA124711EB0C41FB
:101C400044EB1C4422EA074C05FB07F206FB07F7AE
:101C50000CFB06F605FB0CFC16EB074642EB1742A5
:101C600016EB0C4642EB1C456A1854F1000148BFC4
:101C70007047B619524141EB0101A3F101037047CE
:101C800095F0000F37D04FEA11424FEA144721EA8E
:101C9000024624EA074C02FB07F106FB07F70CFBA0
:101CA00006F402FB0CFC14EB074441EB17414FEA2E
:101CB000154714EB0C4441EB1C4125EA074C02FB91
:101CC00007F506FB07F70CFB06F602FB0CFC16EB10
:101CD000074645EB174516EB0C4645EB1C4212191F
:101CE00051F1000148BF7047B619524141EB010163
:101CF000A3F1010370474FEA14454FEA114724EA64
:101D0000054621EA074C05FB07F106FB07F70CFB2C
:101D100006F24FF0000605FB0CFC12EB074241EB0C
:101D2000174112EB0C4251EB1C4148BF704792180F
:101D300041EB0101A3F10103704700007CB59FED69
:101D4000120AF7EE000AB0EE401A02F0C9FD642054
:101D500000F076FA01F0A0FD0C4C84ED000A01F0D1
:101D60009BFD10EE100A03F05BFB05460E46206853
:101D700003F056FB41EC100BCDE9005653EC102B51
:101D800003A000F075F87CBD0000000014000020E6
:101D90005B7A65726F416E676C654F6666736574DA
:101DA0002C7A65726F416E676C655D3A25662C25ED
:101DB000660D0A00FEE70000014800F0CFB8000001
:101DC0006C01002001681823CAB2103AB2FBF3F28A
:101DD000054B6FF30901032A9B5CC36500D9091DFC
:101DE00081650846704700001E55000810B5014681
:101DF00000208B698A6A4FF0C07453B1B3F5005F5D
:101E000015D072B1012A0CD0022A0AD0032A09D1B6
:101E100004E01AB1012A06D0022A03D1C96AC90115
:101E200000D5012010BDC96AA142FAD010BD002A18
:101E3000F7D0012AF2D0022AF3D0032AF3D010BD42
:101E400030B50468256825F4802525600468636042
:101E50008368402B036803D099600068C26030BD7E
:101E60009A600068C16030BD704772B6FEE700003E
:101E70000FB400B5C1B043AA68464299FEF7C8FA4C
:101E8000074801F0DFFA2128FAD06846FEF7D2FAB7
:101E900082B26946024801F09DFC41B05DF814FB36
:101EA000280100202DE9F0410446876D00F0D0FAAA
:101EB000064694F835000025022806D0802060658B
:101EC00084F834500120BDE8F0812068016821F0D9
:101ED000160101602068416921F080014161206C98
:101EE00008B9A06C20B12068016821F008010160E8
:101EF0002068016821F0010101600CE000F0A8FAFF
:101F0000801B052807D920206065032084F8350050
:101F100084F83450D7E720680068C007EED194F801
:101F20005C103F208840B860012084F8350084F8B8
:101F300034500020C7E790F83510022903D08021E3
:101F4000416501207047052180F83510006801685F
:101F500021F0010101600020704700002DE9F843E5
:101F600004464FF00009CDF8009063484FF4165135
:101F7000A56D0068B0FBF1F72E6894F85C1008209E
:101F800000FA01F131420FD021680A6852070BD5DF
:101F90000A6822F004020A6094F85C108840A86085
:101FA000606D40F00100606594F85C104FF001082E
:101FB00008FA01F0304208D021684969090604D5C1
:101FC000A860606D40F00200606594F85C10042029
:101FD0008840304208D021680968890704D5A86084
:101FE000606D40F00400606594F85C10102088403B
:101FF000304218D021680968090714D5A860206804
:102000000168490304D50068000308D5A16C07E006
:102010000168C90503D4016821F008010160216C41
:1020200009B12046884794F85C102020884030424F
:1020300031D021680968C9062DD5A86094F835000B
:1020400005282068016806D0490347D500680003C9
:102050001DD4616C1CE021F016010160206841690B
:1020600021F080014161206C08B9A06C20B120688A
:10207000016821F00801016094F85C103F2088405D
:10208000A86084F8358084F83490216D1FE0E16BFE
:1020900009B120468847606D00282BD0606DC007CD
:1020A00014D0052084F835002068016821F0010172
:1020B00001600098401C0090B84203D82068006876
:1020C000C007F6D184F8358084F83490E16C00299B
:1020D00010D001B02046BDE8F04308470168C905AB
:1020E000D5D4016821F01001016084F8358084F8AE
:1020F0003490CCE7BDE8F8830C0000202DE9F041D6
:10210000044600F0A5F906465CB1022084F83500CB
:10211000002584F834502068016821F00101016035
:102120000DE00120BDE8F08100F092F9801B052848
:1021300005D920206065032084F83500F2E7206887
:102140000068C007F0D12268116820480140D4E936
:1021500001031843D4E90336334318436369184332
:10216000A3691843E3691843236A18430843616A63
:10217000042903D1D4E90B131943084310602068E4
:102180004069666A20F0070130460E4301270428A3
:102190000CD1A06A0643E06A40B12046FFF726FE54
:1021A00020B14020606584F83570BAE72068466148
:1021B0002046FFF707FE94F85C203F2191408160A4
:1021C000656584F835700020ACE700003F8010F0B2
:1021D0002DE9F0410446866D90F834000025012871
:1021E0000DD0012084F8340094F835700020012FC0
:1021F00007D084F8340002252846BDE8F08102208B
:10220000FBE7022784F8357060652046FFF718FE6B
:1022100094F85C103F208840B0602068016841F06D
:1022200016010160206C20B12068016841F00801AE
:1022300001602068016841F001010160DCE70000F5
:1022400070B5044600F004F90546601C02D004484D
:102250000078044400F0FCF8401BA042FAD370BDA3
:10226000000000202DE9F84FDFF8B8A1002201247A
:1022700003254FF00F090AF1040BAAF1040E00BF69
:102280000B6804FA02F63340B34273D10F7907F0BA
:102290000307012F01D0022F16D187684FEA4208A9
:1022A00005FA08FC27EA0C07D1F80CC00CFA08FC68
:1022B0004CEA070CC0F808C04768B7430E79C6F36C
:1022C000001696403E4346600E79F643B6070DD0A1
:1022D000C768560005FA06FC27EA0C07D1F808C0C3
:1022E0000CFA06FC4CEA070CC0F80CC00E7906F09C
:1022F0000306022E10D1D60800EB8608D8F820601D
:1023000057074FEAD76C09FA0CF7BE430F6907FA73
:102310000CF73743C8F8207006684FEA420C05FAFC
:102320000CF7BE430F7907F0030707FA0CF73743A2
:1023300007604E6816F4403F6DD03B4E376847F457
:1023400080473760366822F0030706F4804600961F
:10235000364E07EB060CDCF8086897073F0F09FAC2
:1023600007F826EA0806DFF8C880404503D14FF099
:1023700000081EE04FE0DFF8BC80404502D14FF07E
:10238000010816E0DFF8B080404502D14FF00208A6
:102390000FE0DFF8A880404502D14FF0030808E0C5
:1023A000DFF89C80404502D14FF0040801E04FF077
:1023B000070808FA07F848EA0608CCF80888DAF8A7
:1023C00000605746D1F804C09E435FEACC2C00D58C
:1023D0001E433E60DBF800605F46D1F804C09E43B8
:1023E0005FEA8C2C00D51E433E60DEF80060774625
:1023F000D1F804C09E435FEA8C3C00D51E433E608A
:10240000084F083F3E68D1F804C09E435FEACC3CC9
:1024100000D51E433E60521C102AFFF431AFBDE8C8
:10242000F88F0000083C0140443802400030014071
:10243000000002400004024000080240000C02407C
:10244000001002400AB1816170470904FBE70000F7
:102450000148806870470000000000200248816841
:102460000278114481607047000000200B4810B5CD
:10247000016841F400710160016841F4806101600C
:10248000016841F480710160032000F06FF80F20B3
:1024900000F006F800F024F8002010BD003C0240D7
:1024A00070B50D4D04464FF47A712878B1FBF0F009
:1024B0000A490968B1FBF0F000F0A7FC48B9102CFC
:1024C00007D200222146501E00F030F800206C6038
:1024D00070BD012070BD0000000000200C00002035
:1024E0000A4808B5016841F480410160006800F4C1
:1024F000804000900548001F016841F08051016054
:10250000006800F08050009008BD00004438024090
:10251000002809DB00F01F020121914040098000E2
:1025200000F1E020C0F8001170470000F0B40E4B3D
:102530001B680C46C3F30223C3F10705042D00D921
:102540000425191D072901D2002300E0DB1E012606
:1025500006FA05F1491E214099409E40761E16401C
:102560003143F0BC01F09FBF0CED00E0064900F0E4
:10257000070208684FF6FF03184040EA0220034AAA
:1025800010430860704700000CED00E00000FA0501
:102590002DE9F0470E46050065D0DFF81481D8F824
:1025A0000000F7B200F00700B04207D288F80070D0
:1025B000D8F8000000F00700B04254D128683D4C24
:1025C000810712D5400703D5206840F4E050206011
:1025D0002878000703D5206840F460402060206818
:1025E000A96820F0F000084320602878C0072DD0AB
:1025F000304968680839012812D0022813D003280E
:1026000011D00968890700292DDA216821F003011A
:1026100001432160FFF71CFF814641F2883A0EE03A
:1026200009688903EFE709688901ECE7FFF710FF04
:10263000A0EB0901514502D90320BDE8F0872068CD
:10264000696800F00C00B0EB810FEFD1D8F80010F2
:10265000404601F00701B14207D90770006800F059
:102660000700B04201D00120E7E72878400705D5F0
:102670002068E96820F4E0500843206028780007CB
:1026800006D52068296920F4604040EAC100206036
:1026900000F038F82168084AC1F30311515CC840C2
:1026A0000649086006480068FFF7FAFE0020C4E704
:1026B000003C024008380240265500080C0000206B
:1026C000040000200448054900680968044AC1F371
:1026D0008221515CC84070470C000020083802403D
:1026E000365500080448054900680968044AC1F3E2
:1026F0004231515CC84070470C000020083802404D
:1027000036550008154810B5006810F00C02144842
:1027100013D01449042A0FD0082A0ED10F4C241FBD
:102720002268236802F03F025B0207D52068C0F3ED
:102730008810A0FB010106E0084610BD2168C1F326
:102740008811A1FB00010023FDF7EAFD2168C1F318
:102750000141491C4900B0FBF1F010BD08380240AE
:102760000024F40040787D012DE9F84F04006ED07C
:102770002078DFF84C93C007A9F104054AD009F18D
:1027800004000168C1F38101012908D00068C0F389
:10279000810002280AD1D9F80000400206D5286835
:1027A000800337D560680028E1D033E06068B0F579
:1027B000803F10D0B0F5A02F286810D020F48030D2
:1027C0002860286820F4802028606068A8B1FFF79E
:1027D0003FFE06460DE0286840F48030F4E740F400
:1027E00080202860F7E700BFFFF732FE801B6428D7
:1027F00073D828688003F7D50CE0FFF729FE06465A
:1028000005E000BFFFF724FE801B6428F0D828688D
:102810008003F7D42078DFF8AC8280074FF0000AFD
:102820003ED5A748001D016811F00C0F08D00068C4
:10283000C0F3810002280BD1D9F80000400207D470
:102840002868800716D5E068012800D112E033E13E
:10285000E068B8B10120C8F80000FFF7F9FD0646AE
:1028600005E000BFFFF7F4FD801B0228C0D82868F0
:102870008007F7D52868216920F0F80040EAC100F8
:1028800028600DE0C8F800A0FFF7E2FD064604E06E
:10289000FFF7DEFD801B02281FD828688007F7D4C9
:1028A0002078000722D5864F87486169703771B15B
:1028B00001210160FFF7CCFD064604E0FFF7C8FDEB
:1028C000801B022809D838688007F7D50EE0C0F8C9
:1028D00000A0FFF7BDFD064605E082E0FFF7B8FD6A
:1028E000801B02287DD838688007F7D420784007FD
:1028F00068D5DFF8CCB100270BF13C0BDBF800000A
:10290000C0000BD4DBF8001041F08051CBF8001070
:10291000DBF80000012700F0805000906B4E30681B
:10292000C00510D4306840F480703060FFF790FD2F
:10293000009005E0FFF78CFD0099401A022850D85E
:102940003068C005F6D55E4EA0686C3601280FD001
:102950000528306810D020F001003060306820F089
:1029600004003060A068B8B1FFF772FD00900FE07E
:10297000306840F00100F4E740F004003060F7E711
:10298000FFF766FD0099411A41F28830814266D80E
:1029900030688007F4D50EE0FFF75AFD009007E09D
:1029A000FFF756FD0099411A41F28830814256D80E
:1029B00030688007F4D42FB1DBF8001021F080518B
:1029C000CBF80010A069C8B33D49091D0968C1F3DF
:1029D000810102294AD00228504607D0C8F8600079
:1029E00000E03CE0FFF734FD04463BE04746C8F812
:1029F0006000FFF72DFD064605E000BFFFF728FD4C
:102A0000801B02282BD828688001F7D4D4E907015D
:102A10000843A16A2E4A490802EB0141626A41EA71
:102A20008211084394F82C1040EA0161C9F80010A3
:102A300001203866FFF70CFD044606E03EE000BFCB
:102A4000FFF706FD001B022809D828688001F7D58A
:102A500034E000BFFFF7FCFC001B022802D9032072
:102A6000BDE8F88F28688001F4D427E00128F7D06A
:102A7000D9F80000E26900F4800191421CD1226A79
:102A800000F03F01914217D147F6C071626A0140E0
:102A9000B1EB821F10D1A26A4FF0FF3300F4403136
:102AA00003EB5202B1EB024F06D194F82C1000F068
:102AB0007060B0EB016F01D00120D1E70020CFE7BB
:102AC0000438024000004742800E47420070004038
:102AD0000000FFFF90F85100704770B5040009D066
:102AE000606A002540B125616561A56294F85100D6
:102AF00040B10CE0012070BD6068B0F5827FF4D079
:102B0000E561F2E784F85050204600F045F80220D5
:102B100084F851002068016821F040010160A0881C
:102B2000218900F4827001F404410843A18901F471
:102B300000610843217C01F002010843217D01F07E
:102B400001010843218B01F400710843217F01F04A
:102B50003801084394F8201001F080010843218DCA
:102B600001F40051084321680860A069042101EACA
:102B7000104094F8241001F01001084321684860C7
:102B80002068C16921F40061C1616565012084F894
:102B90005100002070BD0000F0B587B0044614213C
:102BA0006846FDF766FC1C492068884232D11B4804
:102BB0000024016841F480510160006800F48050F5
:102BC000059016481438016841F001010160016860
:102BD00001F001010591016841F002010160006806
:102BE000022500F0020005908020CDE9000502AA30
:102BF0000326052782E8D00069460948FFF732FB23
:102C00001820CDE9000502AA694682E8D0000548EF
:102C1000FFF728FB07B0F0BD003001404438024008
:102C200000000240000402402DE9F84F044690F8ED
:102C3000500000270A9E1D4692468B464FF0010920
:102C400001280ED0012084F85000FFF701FC8046D7
:102C500094F85100616801280CD0B1F5827F07D14A
:102C600002E00220BDE8F88FA16809B9042801D06C
:102C70000227C2E0BBF1000F27D0BAF1000F24D029
:102C80001DB394F85100042802D0052084F85100A7
:102C900000206065C4F838A0E587A587C4F830B087
:102CA000E586A5862064606420680168490603D42F
:102CB000016841F040010160E068B0F5006F6068B4
:102CC00005D0E8B3012D46D07FE0012795E008B19B
:102CD000012D39D1206B21680088C860206B801CD1
:102CE0002063E08E401EE0862EE020688168890720
:102CF0000FD5E18E69B1B9F1010F0AD1216B0988B5
:102D0000C160206B801C2063E08E401EE0864FF087
:102D1000000920688168C9070CD0E18F51B1C068F3
:102D2000A16B0880A06B801CA063E08F401EE08731
:102D30004FF00109FFF78CFBA0EB0800B04200E068
:102D400009E001D3701C50D1E08E0028CDD1E08F76
:102D50000028CAD13FE0206B216800780873206BFF
:102D6000401C2063E08E401EE0862EE020688168D3
:102D700089070FD5E18E69B1B9F1010F0AD1216B35
:102D800009780173206B401C2063E08E401EE086B2
:102D90004FF0000920688168C9070CD0E18F51B15C
:102DA000C068A16B0870A06B401CA063E08F401E40
:102DB000E0874FF00109FFF74BFBA0EB0800B042A2
:102DC00002D3701C01D010E07EB1E08E0028CDD17E
:102DD000E08F0028CAD142463146204600F09CFFD1
:102DE00028B101272020606507E0032705E0A068DF
:102DF00018B92068C16880680090012084F85100EB
:102E0000002084F8500038462CE710B5401EB0F181
:102E1000807F01D3012010BD4FF0E02460610F21BD
:102E2000601701F040FB0020A06107202061002016
:102E300010BD70477047000070B590F83C20012A23
:102E40002CD0012480F83C40022280F83D20036809
:102E50005A689D6822F070060A6832435A60104B27
:102E600002689A420ED0B2F1804F0BD00D4B9A42BD
:102E700008D00D4B9A4205D00C4B9A4202D00C4B15
:102E80009A4204D1496825F080031943916080F883
:102E90003D40002180F83C10084670BD022070BD06
:102EA000000001400004004000080040000C004009
:102EB0000040014010B5040003D094F83D0010B16B
:102EC00007E0012010BD002084F83C00204600F0FF
:102ED0001FF8022084F83D00211D206801F024F82D
:102EE000012084F8460084F83E0084F83F0084F80E
:102EF000400084F8410084F8420084F8430084F8DC
:102F0000440084F8450084F83D00002010BD000016
:102F100008B501681048B1F1804F14D00F4A9142B2
:102F200019D1016841F0020101600068002200F03F
:102F30000200009011461D20FFF7F8FABDE8084096
:102F40001D20FFF7E5BA016841F00101016000684A
:102F500000F00100009008BD40380240000400402D
:102F600090F83D10012901D001207047022180F81E
:102F70003D100168CA6842F00102CA6000680E494B
:102F800088420ED0B0F1804F0BD00C49884208D057
:102F90000B49884205D00B49884202D00A49884231
:102FA00004D1816801F00701062903D0016841F0CE
:102FB0000101016000207047000001400004004052
:102FC00000080040000C00400040014070B504467D
:102FD00090F83C000025012817D0012684F83C60B9
:102FE000022084F83D002068826822F0770222F4F3
:102FF0007F4282600868502838D00DDC20284FD0EE
:1030000005DC90B3102811D14AE0022070BD3028B1
:1030100046D040280AD13BE060282FD070280DD040
:10302000B0F5805F03D0B0F5005F12D0012584F8C1
:103030003D60002084F83C00284670BDCB68D1E993
:103040000121206800F0C9FF2068816841F0770104
:1030500009E0CB68D1E90121206800F0BEFF2068BB
:10306000816841F480418160E1E719E0CA684968FC
:10307000206801F067F85021206806E0CA684968B6
:10308000206801F070F86021206800F0B0FFCEE702
:10309000CA684968206801F055F840212068F4E7C3
:1030A000226801461046F0E7704770B50446006894
:1030B00001694FF00005C943890715D4C168C943A8
:1030C000890711D4E91E01610120207720688069F9
:1030D0008007204602D0FFF7E7FF04E000F0C0F8C9
:1030E000204600F052F9257720680169C943490755
:1030F00017D4C168C943490713D46FF004010161B3
:10310000022020772068806910F4407F204602D09A
:10311000FFF7CAFF04E000F0A3F8204600F035F9FD
:10312000257720680169C943090716D4C168C943D6
:10313000090712D46FF0080101610420207720688C
:10314000C0698007204602D0FFF7AEFF04E000F020
:1031500087F8204600F019F9257720680169C943EE
:10316000C90617D4C168C943C90613D46FF010014A
:103170000161082020772068C06910F4407F204654
:1031800002D0FFF791FF04E000F06AF8204600F05B
:10319000FCF8257720680169C943C90708D1C168CF
:1031A000C943C90704D1891E0161204600F046F9D0
:1031B00020680169C943090609D4C168C9430906E1
:1031C00005D46FF0800101612046FFF732FE2068D0
:1031D0000169C943490609D4C168C943490605D4F0
:1031E0006FF040010161204600F029F92068016973
:1031F000C94389060BD4C168C943890607D46FF057
:10320000200101612046BDE87040FFF713BE70BD8C
:1032100010B586B0044614216846FDF72AF92068E7
:10322000B0F1804F15D10C480021026842F0010234
:103230000260006800F00100059007200090022065
:10324000CDE901010120CDE9031069460348FFF7EC
:1032500009F806B010BD00003038024000000240FE
:10326000704770B5044690F83C0000260D460128D2
:103270000FD0012084F83C006AB1042A1DD0082A2E
:103280002FD00C2A3FD00126002084F83C00304685
:1032900070BD022070BD206800F0B2FE2068816918
:1032A00041F0080181612068816921F00401816198
:1032B000206881692A69114311E0206800F0C8FE86
:1032C0002068816941F4006181612068816921F48D
:1032D00080618161206881692A6941EA02218161F6
:1032E000D2E7206800F0E0FE2068C16941F00801E3
:1032F000C1612068C16921F00401C1612068C16910
:103300002A69114311E0206800F0FAFE2068C169C3
:1033100041F40061C1612068C16921F48061C1612B
:103320002068C1692A6941EA0221C161ACE710B590
:10333000040003D094F83D0010B107E0012010BD57
:10334000002084F83C00204600F01EF8022084F89B
:103350003D00211D206800F0E7FD012084F84600B3
:1033600084F83E0084F83F0084F8400084F841006F
:1033700084F8420084F8430084F8440084F845004F
:1033800084F83D00002010BD7047704710B504461A
:10339000022249B104290ED0082913D094F8410023
:1033A000012816D0012010BD94F83E000128F9D163
:1033B00084F83E200FE094F83F000128F2D184F811
:1033C0003F2008E094F840000128EBD184F8402029
:1033D00001E084F841200122206800F0F1FD12494B
:1033E0002068884203D1426C42F400424264206863
:1033F00088420ED0B0F1804F0BD00C49884208D0E3
:103400000B49884205D00B49884202D00A498842BC
:1034100004D1816801F00701062903D0016841F059
:1034200001010160002010BD0000014000040040C7
:1034300000080040000C0040004001407047704709
:103440007047704710F83D1F4078084370470000F0
:10345000F8B5016804460868CA684B6910F00F0F98
:103460004FF0000559D003F0010602F4907737437E
:1034700065D0C10705D0D10503D5216C41F001010C
:103480002164410705D5D90703D0216C41F0020121
:103490002164810705D5D90703D0216C41F00401CF
:1034A0002164010707D502F02001314303D0216CCC
:1034B00041F008012164216C00293AD0800604D52E
:1034C000900602D5204600F0E8FE20684069216C95
:1034D000C0F38010090700D460B3204600F0A8FEB6
:1034E00020684069400621D52068143050E8001F4C
:1034F00021F0400140E80012002AF5D1A06BA8B1EC
:103500006C490165A06BFEF716FD002811D0A06B79
:10351000016D01B0BDE8F040084783060FD5930662
:103520000DD52046BDE8F84000F0B7BE2046FFF7B5
:1035300088FFF8BD2046FFF784FF2564F8BD266BA1
:103540002023012E79D1C60677D5D60675D5086811
:10355000486800904869400640D5A16B08684068FB
:103560000004000CEAD0A28D8242E7D9E085C86948
:10357000B0F5807F2DD020680C3050E8001F21F47A
:10358000807140E80012002AF5D12068143050E81C
:10359000001F21F0010140E80012002AF5D1206847
:1035A000143050E8001F21F0400140E80012002ACA
:1035B000F5D184F83E30256320680C3050E8001FB8
:1035C00021F0100140E80012002AF5D1A06BFEF7AF
:1035D00069FCA08DE18D401A81B229E0A08DE18DBA
:1035E000401A81B2E08D0028A8D00029A6D020681A
:1035F0000C3050E8002F22F4907240E80026002E94
:10360000F5D12068143050E8002F22F0010240E884
:103610000026002EF5D184F83E30256320680C305A
:1036200050E8002F22F0100240E80023002BF5D1D3
:103630002046FFF705FFF8BDFFE705062BD5150669
:1036400029D594F83D002128F5D1A068B0F5805F18
:1036500001D12069B0B1206A411C21622168007843
:103660004860E08C401E0004000CE084E3D1206838
:10367000C16821F08001C1602068C16841F040014B
:10368000C160D8E7206A0088C0F308004860206A5B
:10369000801C2062E5E74006CDD55006CBD5CA6830
:1036A000204622F04002CA6084F83D3000F0D8F88D
:1036B000C1E700008B41000870B5040004D094F805
:1036C0003D00002510B106E0012070BD84F83C509B
:1036D000204600F023F8242084F83D002068C168CB
:1036E00021F40051C160204600F038FE20680169D5
:1036F00021F4904101612068416921F02A01416172
:103700002068C16841F40051C1602564202084F81C
:103710003D0084F83E00002070BD000070B586B00A
:10372000064614216846FCF7A4FE24493068884206
:1037300041D123480025016841F010010160006873
:1037400000F0100005901E481438016841F0010196
:1037500001600068694600F0010005904FF4C06008
:1037600000900220CDE9010503200390072004907A
:103770001448FEF777FD154C134820604FF00060A9
:1037800060604020C4E902050001C4E90405A561A8
:10379000E561256220466562FEF7B0FC08B1FEF7E0
:1037A00064FB7463002201212520A663FEF7BEFEA0
:1037B0002520FEF7ADFE06B070BD000000100140F0
:1037C0004438024000000240B86402406C0100200E
:1037D0007047000070B5044690F83D00202836D1AF
:1037E00091B38AB394F83C00012830D0012084F8CA
:1037F0003C002162A284E28400252564212084F813
:103800003D00636B1348D863636B13481864636BA4
:103810001248D864606B134605652668606B321DDC
:10382000FEF7D6FC21686FF04000086084F83C5039
:103830002068143050E8001F41F0800140E8001279
:10384000002AF5D1002070BDFFE70120FBE7022030
:10385000F9E70000E5410008274200089B41000805
:1038600070477047FEE700000849DFED090A9FED49
:10387000091A91ED000A20EE200AD0ED000A00EEB0
:10388000810A80ED000A81ED000A704728000020BF
:103890006666663FCDCCCC3D10B500F03DF80648DD
:1038A000B1EE0C1AD0ED000ABDE8104050EE010A4E
:1038B000B0EE600A00F0A4BE1400002010B500F0C5
:1038C0002BF81248124AD0ED020A70EE600AB0EEF0
:1038D000E01A11EE101A91420CDDF5EEC00AF1EE7D
:1038E00010FA02DD4FF0FF3100E00121426811447F
:1038F0004160016180ED020AD0ED010A9FED051AD9
:10390000F8EEE00A00EE810A10BD0000140000206D
:103910007CD9A040DB0FC94010B500F011F800EED3
:10392000100ADFED050AB8EE400A20EE200ADFEDAE
:10393000030A20EE200A10BD00008038DB0FC940CA
:103940003EB54FF6FF70ADF80800C82404E0641ED1
:10395000A4B201D214A01DE01848FFF7BBF801285B
:10396000F5D1174C002220212046FEF76BFD4FF0C9
:10397000FF300090012301AA02A91048FFF754F973
:1039800000284FF001024FF02001204606D0FEF73C
:1039900059FD0CA0FEF76CFA00203EBDFEF752FD6B
:1039A000BDF8040080083EBD535049207374617413
:1039B00065206572726F72210D0A000040000020C0
:1039C000000402404D543637303120726561642066
:1039D00064617461206572726F72210D0A000000CB
:1039E00010B5FFF76BFF0C48DFED0C1A0269416858
:1039F000D0ED030A891A01EE101A70EE600A80ED0C
:103A0000030AB8EEC11A41EE210A9FED051A60EED5
:103A1000810AB0EE600A10BD14000020DB0FC9401F
:103A200000007A44094808B5016841F4800101604A
:103A30000068002200F48000009001214620FEF77B
:103A400075FDBDE808404620FEF762BD30380240F3
:103A500030B587B014216846FCF70BFD16480024EA
:103A6000016841F080010160016801F08001059169
:103A7000016841F001010160016801F00101059157
:103A8000016841F00201016000680C4D00F0020085
:103A90000590012220212846FEF7D4FC202000902A
:103AA0000120CDE901040220039069462846FEF773
:103AB000D9FB07B030BD000030380240000402409E
:103AC000114810B50F4901604FF482714160002127
:103AD0004FF40062C0E902120122C0E9041252024E
:103AE00082611022C0E90721416281620A21C1621C
:103AF000FEF7F3FF002803D0BDE81040FEF7B5B98C
:103B000010BD0000003001404000002010B58EB014
:103B100000240794089409940A940B941C21684685
:103B20000C94FCF7A6FC26484FF08041C0E9001435
:103B30002021816040F6EF21C0E9031480218161DA
:103B4000FFF7B8F908B1FEF790F94FF480500790ED
:103B500007A91B48FFF73AFA08B1FEF786F918489B
:103B6000FFF7E5FB08B1FEF780F90B940BA91448A9
:103B70000C94FFF761F908B1FEF777F96020CDE901
:103B800000040294002269460D480494FFF769FB83
:103B900008B1FEF76AF9042269460948FFF761FB9C
:103BA00008B1FEF762F9082269460548FFF759FB9C
:103BB00008B1FEF75AF90248FFF72AFB0EB010BD14
:103BC0009800002010B586B0002417480094019496
:103BD0000294039404941349059401605321C0E9AD
:103BE000011440F2E731C0E903148461FFF762F980
:103BF00008B1FEF73AF94FF48050009069460A4840
:103C0000FFF7E4F908B1FEF730F9049404A9064877
:103C10000594FFF711F9002801D0FEF726F906B048
:103C200010BD000000040040E00000200C4810B56A
:103C30000A4901600B494160002181600C22C1608A
:103C4000C0E904128161C161FFF736FD002803D08D
:103C5000BDE81040FEF709B910BD0000001001409A
:103C60002801002000CA0800FEE7FEE770EE600AA7
:103C7000017E90ED070A49B9D0ED011A90ED041AC2
:103C800061EEA01A01EE801A80ED041A90ED052A6B
:103C9000D0ED021A90ED001A30EEC22A012121EE79
:103CA000201A21EE822AC2EE001A90ED040AC0ED1D
:103CB000050AD0ED030A30EE010A30EE210AF4EED7
:103CC000C00AF1EE10FA06D3F1EE600AF4EEC00A73
:103CD000F1EE10FA03DD0176B0EE600A70470021C4
:103CE0000176704780ED072A80EC040A70470000D7
:103CF00010B500210648FFF749FB04210448FFF7EF
:103D000045FBBDE8104008210148FFF73FBB00001C
:103D1000980000207047000038B504461248134B45
:103D20000068B0FBF3F04FF47A735843009060687A
:103D3000B0F5827F0DD10B460092002280212046F3
:103D400000F016F870B1606D40F02000606503204F
:103D500038BD009830B1401E009020688068C04394
:103D60000006F6D5002038BD0C00002000366E019C
:103D70002DE9F8431E46914688460446089DFEF705
:103D800067FB401B351AFEF763FB074625480068B2
:103D9000C0F3CB30684338E0701C37D0FEF758FBD7
:103DA000C01BA84203D215B1009860B32CE0206874
:103DB000416821F0E00141606068B0F5827F0BD17D
:103DC000A068B0F5004F02D0B0F5806F04D1206834
:103DD000016821F040010160A06AB0F5005F09D1DF
:103DE0002068016821F4005101602068016841F4F5
:103DF00000510160012084F85100002084F8500037
:103E00000320BDE8F8830025401E009020688168EB
:103E100038EA010004D000214945BDD10020F0E777
:103E20000121F9E70C00002070470000DFED0D1ABA
:103E30000D4820EE210A0268BCEEC00A10EE101AEE
:103E4000516320EEA10A0268BCEEC00A10EE101AFF
:103E5000916321EE210A0068BCEEC00A10EE101A30
:103E6000C163704700002F4598000020FEF7F6BAA6
:103E700030B593B030216846FCF7FBFA14210CA84A
:103E8000FCF7F7FA1D480024016841F080510160F9
:103E9000006800F0805011901948016821F44041F9
:103EA00041F4004101600068022500F44040119097
:103EB0000120039010200490009506950820CDE97C
:103EC00007405420CDE9090504200B906846FEF711
:103ED0004BFC08B172B6FEE70F20CDE90C054FF49C
:103EE0008050CDE90E4002210CA81094FEF750FB43
:103EF000002801D072B6FEE713B030BD4038024052
:103F0000007000400248016841F470010160704790
:103F100088ED00E010B500F033FCBDE8104001482A
:103F2000FFF7C3B8E0000020F0B502681D4B1E4C3F
:103F30009F031E4D1E4E984207D0B84205D0A042A6
:103F400003D0A84201D0B04204D122F0700C4A68DC
:103F500042EA0C02984210D0B8420ED0A0420CD0D7
:103F6000A8420AD0B04208D0124CA04205D0124C50
:103F7000A04202D0114CA04203D122F44074CA687E
:103F800022434C6922F08002224302608A68C262A6
:103F90000A688262984201D1096901630121416185
:103FA000F0BD000000000140000400400008004097
:103FB000000C004000400140004401400048014026
:103FC00010B501F01F030121046A99408C4304627B
:103FD000016A9A401143016210BD10B5846842EA3B
:103FE000032224F47F440A432243826010BD826886
:103FF00022F070020A4342F007018160704700001E
:1040000030B5026A22F001020262026A43688469E2
:1040100024F073050C682C4322F002058A682A43B9
:104020000A4DA8420BD122F00805CA6823F4407358
:104030002A434D6922F004021D438B692B434360E0
:10404000846149684163026230BD000000000140A4
:1040500030B5026A22F010020262026A4368846983
:104060000D6824F4E64444EA05248D6822F0200219
:1040700042EA05120B4DA8420ED1CD6822F0800213
:1040800042EA05124D6923F4406343EA85038D69D2
:1040900022F0400243EA85034360846149688163FA
:1040A000026230BD0000014030B5026A22F4807225
:1040B0000262036A4268C46923F4007324F0730542
:1040C0000C682C438D6843EA05230C4DA8420ED1A1
:1040D000CD6823F4006343EA05234D6922F440527E
:1040E00042EA05128D6923F4806342EA05124260B8
:1040F000C4614968C163036230BD00000000014033
:1041000030B5026A22F480520262046A4268C369CE
:104110000D6823F4E64343EA05238D6824F4005434
:1041200044EA0534064DA84204D14D6922F4804288
:1041300042EA85124260C36149680164046230BD8D
:104140000000014010B5036A046A24F0010404620F
:10415000846924F0F00444EA021423F00A020A43BA
:104160008461026210BD10B5036A23F0100303627C
:104170008369046A23F4704343EA023224F0A00303
:1041800043EA01118261016210BD10B5806B00210C
:10419000C185C184FFF755F910BD70B5846B2068E7
:1041A000406994F83D10C0F3C0100025212904D1C6
:1041B00018B1E584204600F062F82068406994F860
:1041C0003E10C0F38010222904D118B1E5852046A5
:1041D00000F02EF8206C40F0100020642046FFF71D
:1041E00030F970BD10B50146806B09680968C905D2
:1041F00016D40021C1840168143151E8002F22F047
:10420000800241E80023002BF5D101680C3151E810
:10421000002F42F0400241E80023002BF5D110BDF1
:10422000FFF71EFB10BD10B5806BFFF71AFB10BD2A
:1042300001680C3151E8002F22F4907241E800230C
:10424000002BF5D10168143151E8002F22F0010252
:1042500041E80023002BF5D1016B012909D1016848
:104260000C3151E8002F22F0100241E80023002B0E
:10427000F5D1202180F83E100021016370470168CC
:104280000C3151E8002F22F0C00241E80023002B3E
:10429000F5D1202180F83D10704708B590F83E1008
:1042A000222901D0022008BD82684FF480539A422F
:1042B00001D1016921B1816A9A421BD04AB10AE059
:1042C0000268816A5268C2F308020A80816A891C06
:1042D00008E0026972B10268526802F07F020A7057
:1042E000816A491C8162C18D491E0904090CC1857E
:1042F00003D019E002685268F1E70168CA6822F049
:104300002002CA600168CA6822F48072CA6001682B
:104310004A6922F001024A61202180F83E10016BB7
:10432000012903D0FFF754FA002008BD00210163E2
:1043300001680C3151E8002F22F0100241E80023FF
:10434000002BF5D101680A68D20602D50A684968CF
:104350000091818DFFF774F8E6E7000070B5044620
:1043600000680169E26821F440511143016121694B
:10437000A068E26908436169114308432168CA687B
:1043800049F20C639A430243CA6020684169A269FA
:1043900021F440711143416131492068884202D0C3
:1043A0003049884202D1FEF79DF901E0FEF78AF913
:1043B000E2690023192164253226B2F5004F6268B4
:1043C00028D0A0FB0101930F9200FBF7A9FF014643
:1043D000B0FBF5F06FF01802504301EB800006EBE4
:1043E0000010B0FBF5F000F0F002B1FBF5F002EBCD
:1043F0000012B1FBF5F06FF01803584301EB800099
:1044000006EB0010B0FBF5F000F00F00216810443F
:10441000886070BDA0FB010192185B41FBF780FF33
:104420000146B0FBF5F00201B1FBF5F06FF01803A7
:10443000584301EB800006EBC000B0FBF5F000F044
:10444000F80002EB4002B1FBF5F0584301EB8000AD
:1044500006EBC000B0FBF5F000F00700D6E7000067
:1044600000100140001401400148FEF7F1BF0000B8
:1044700028010020FEE703B401984100009850EAAB
:10448000C12018BF04204A0D18BF40F0010040F2BF
:10449000FF72B2EB515F08BF40F00200012808BF75
:1044A000052002B070470907090E002804DB00F15F
:1044B000E02080F80014704700F00F0000F1E020C9
:1044C00080F8141D7047000010B52DED040B86B068
:1044D0009DED060B10EE100A10EE901A8DED000BFC
:1044E000002818BF0120084320F00040C0F17F6081
:1044F00000F1E040C00F21D19DED080B10EE101A25
:1045000010EE900A8DED000B002918BF0121084321
:1045100020F00040C0F17F6000F1E040C00F0DD1FD
:1045200029490798B1EB400F04BF0698002842D0F4
:104530000998400004BF089800283CD09DED080B66
:1045400053EC102B9DED060B51EC100B00F0C4FD4D
:10455000CDE902019DED020B40F2FF7110EE900AD1
:104560008DED000B31EA105021D00798039900F02F
:10457000004001F00041884219D09DED080B8DEDFF
:10458000040B9DED020B8DED000B10EE900A0599CA
:1045900061F31E0005909DED041B9DED020B51EC97
:1045A000110B53EC102B00F045FECDE902019DEDFF
:1045B000020B0AB010BD0120FBF78AFF0AB0BDE86C
:1045C000104000F005B800000000E0FF000000000F
:1045D0009FED050B10B553EC102B51EC100B00F0B8
:1045E000D5FB41EC100B10BD0000000000000000E6
:1045F00030380A2801D2012070470020704700009F
:1046000010B510EE100A00F00BFF41EC100B9FEDFF
:104610000A1BFFF759FF51EC100B00F0DDFA00EE1A
:10462000100AB5EEC00AF1EE10FA03DADFED040A63
:1046300030EE200A10BD000000000060FB21194090
:10464000DB0FC94008489FED0C2ADFED080A9FEDFB
:10465000081ADFED081A80ED072AB1EE040A80EC93
:10466000040AFFF73FBB0000EC010020CDCC4C3E1C
:1046700000000000000048426F12833A9FED1A1AB2
:10468000F5EE000A40EE010ABDEEE00AF5EEC00AC2
:1046900010EE100AF1EE10FA00D2401E00EE100AE1
:1046A0001349F7EE001AB8EEC00A30EEC00ADFED8B
:1046B0000F0A20EE200AFCEEC00A10EE900AC0F3AA
:1046C000080000EE900A01EB8000F8EE600A90ED21
:1046D000011A70EE600A90ED000A71EEE01A21EE08
:1046E000800A00EE810A704783F9223E00000044F0
:1046F00040550008B5EEC00AF1EE10FA04D210EEF3
:10470000100A1B49884232D9B5EEC00ADFED190AFA
:1047100060EE200ABDEEE01A11EE100AF1EE10FA7A
:1047200000D2401E00EE100A1449F7EE001AB8EE4F
:10473000C00A30EEC00ADFED100A60EE200ABCEEBF
:10474000E00A10EE100AC0F3080000EE100A01EBB8
:104750008000B8EE400A90ED011A70EEC00A90EDAC
:10476000000A71EEE01A21EE800A00EE810A70471D
:10477000CD024CB483F9223E0000004440550008AD
:1047800000B52DED028B81B0FFF7C6F81548F0EEAD
:10479000400A80ED040A90ED010A1348FFF766FA1B
:1047A000B0EE408AFFF71CF98DED000A6846FFF76E
:1047B0005BF80D48DDED000AB0EE480A2038FFF73F
:1047C00055FAB0EE408AFFF767F8B0EE401ADFED19
:1047D000070AB0EE480A00F083F801B0BDEC028B86
:1047E00000BD00002C000020EC01002000000000B3
:1047F0007CB5094C206900F013FE05460E46606842
:1048000000F00EFE41EC100BCDE9005653EC102BDE
:1048100002A0FDF72DFB7CBD2C0000205B536574CE
:1048200056616C75652C41637475616C56616C756D
:10483000655D3A25662C25660D0A0000FDF716FE1B
:10484000FFF716FBFFF704F9FFF7ECF8FFF7EEF9B7
:10485000FFF736F9FFF75AF9FFF7B4F90DA0FDF7A6
:1048600007FBFFF745FA1420FDF7EAFCFDF766FAAF
:1048700000F06CF9FFF7E6FE3220FDF7E1FC0D4891
:10488000FEF76EFB0CA0FDF7F3FA00BFFFF7B0FFD9
:10489000FCE700002A2A2A2A2A2A2A2020464F43F7
:1048A00020496E69742120202A2A2A2A2A2A2A0DC0
:1048B0000A000000E00000202A2A2A2A2A2A2020B2
:1048C000464F4320456E746572204C6F6F702120F7
:1048D000202A2A2A2A2A2A2A2A2A0D0A0000000027
:1048E00010B510EE100A2DED068BB0EE418AF0EEF9
:1048F00060AA8F49884202D9F9EE049A09E010EEC5
:10490000100A8C49884202DDF1EE049A01E0F0EED3
:10491000409AB0EE480AFFF7B1FE20EE2AAAB0EEA8
:10492000480AFFF7E7FE09EEC0AAB0EE480AFFF713
:10493000A5FE60EE299AB0EE480AFFF7DBFE4AEECC
:10494000809A7D4890ED000ADFED7C0A60EE200A37
:10495000DFED7B1A80EEA11A69EE811ADFED790A8C
:104960002AEE202AF6EE000A09EEE02A22EE012ABB
:10497000DFED752AF5EEC01A6AEE222A49EEE02A2A
:1049800022EE811AF1EE10FA01DD012000E0002094
:10499000B5EEC02AF1EE10FA01DD012100E00021A0
:1049A000B5EEC01A00EB4101F1EE10FA01DD012075
:1049B00000E0002001EB800007281ED2DFE800F0B5
:1049C000AB1E8E04563C740032EE211AB4EEC01AAF
:1049D000F1EE10FA05DDC0EE012A22EE222A61EE88
:1049E000A21A30EE420A30EE610A20EE208A32EE40
:1049F000210A71EE888A30EE089A8CE0F1EE421AB4
:104A0000B1EE411A31EE812AB4EEC02AF1EE10FA6D
:104A100005DDC0EE022A61EEA21A21EE221A30EE66
:104A2000610A30EE410A20EE208A31EE810A31EE31
:104A3000089A70EE088A6EE031EE812AB4EEC02A40
:104A4000F1EE10FA05DDC0EE022A61EEA21A21EEA7
:104A5000221A30EE610A30EE410A20EE209A31EE41
:104A6000810A31EE098A70EE098A54E0F1EE611A8A
:104A7000B1EE421A31EE812AB4EEC02AF1EE10FAFC
:104A800005DDC0EE022A61EEA21A21EE221A30EEF6
:104A9000610A30EE410A20EE209A31EE810A71EE71
:104AA000098A30EE098A36E071EE021AF4EEC01A75
:104AB000F1EE10FA05DDC0EE212A21EE221A22EED7
:104AC000222A30EE410A30EE420A60EE208A31EEB0
:104AD000020A32EE289A30EE288A1CE0B1EE412A12
:104AE000B1EE611A72EE011AF4EEC01AF1EE10FA8C
:104AF00005DDC0EE212A22EE222A21EE221A30EE16
:104B0000420A30EE410A60EE208A32EE010A31EEAE
:104B1000288A30EE289AF0EE680AB0EE481AB0EE15
:104B2000490ABDEC068BBDE81040FFF77FB90000D5
:104B30000000A0C00000A04010000020D7B3DD3F5F
:104B400066664641D7B35D3FD7B35DBF09489FED69
:104B50000B2A9FED070A9FED081A80ED072AF7EE52
:104B6000000AF0EE081A80EC040AFFF7BBB8000058
:104B7000CDCCCC3DCC010020000000006F12833A68
:104B800010B500290AD00878002807D005487844D5
:104B9000FCF7C4FC002801D0002010BD0248784476
:104BA00010BD0000D2120000CA12000010B500298A
:104BB0000AD00878002807D005487844FCF7AEFCF6
:104BC000002801D0002010BD0248784410BD00002C
:104BD000C2120000BA12000021F00042A2F160529D
:104BE000B2F5801F01F0004328BFD2F17F6C0BD9D2
:104BF0005FEA001C43EAC20242EB507018BF7047E4
:104C000028BF20F001007047B2F5801FBCBF1846D6
:104C100070474FEA410C1CF5001F02D2084600F015
:104C200075BC70B500F00AFA00000089FFF7F6BF06
:104C30004FF00040A0F580007047000010B591EAE9
:104C4000030F48BF83F0004300F10883841A71EB1F
:104C5000030C05D2121943EB0C03001B61EB0C0192
:104C6000DFF824E14FEA1154A4EB135C1EEA430F72
:104C700018BF9EEA445F73D023EA0E03DCF1200ED6
:104C800021EA045143F4801332D322FA0CFE10EBD4
:104C90000E0023FA0CFE41EB0E01CCF1200E03FABC
:104CA0000EFE10EB0E0051F10001B1F5801FCCF1AA
:104CB000200E32D201EB045112FA0EF2BDE8104080
:104CC00058BF7047401C38BF5FEA420218BF7047A8
:104CD000002814BF20F0010041F100014FEA410318
:104CE00013F5001F38BF7047A1F1C04100F09CBA16
:104CF000012A43EB0302ACF1200CDCF11F0E32BFA2
:104D00004FF0000E23FA0CF310EB030041EB0451BB
:104D1000B4EB115FD0D0A1EB045101F5801149082B
:104D20005FEA300001EB04510ED350F1000038BFB0
:104D300012FA0EFE08D1BDE81040C9E7401C38BF8A
:104D40005FEA4202CAD1C3E7BDE810404FEA41031F
:104D500013F5001F38BF7047A1F1C04100F064BADD
:104D60009EEA445F08D011EA5E0FBDE8104004BF20
:104D700001F0004100207047BDE8104070B500F020
:104D80005DF900BF64FBBE3E0000E0FF2DE9C041BD
:104D900030B4DFF8A0C23CEA111418BF3CEA131487
:104DA00000F0EC8081EA03051CEA111444EAD57492
:104DB00018BF1CEA131500F0C780A4EB05044FF0E0
:104DC000004545EAC12145EAC32341EA505143EA7F
:104DD000525304F17F74994204F500344FEAC02025
:104DE0004FEAC22208BF904200F09C804FEA136550
:104DF0000FF24016765D4FEA134506FB05F7C7F143
:104E0000807706FB07F74FEAD737A7FB03687642A0
:104E1000C8F58038A7FB06CE38BFA8F1010807FB0C
:104E200008E64FF0000EA6FB028CE6FB03CEDCF199
:104E3000000CCEF1004E38BFAEF1010EA6FB0C58AF
:104E40004FF000074FF00005E6FB0E87A1FB08C6F8
:104E5000A0FB07CE16EB0E0645F10005E1FB07654A
:104E600015F1E04E7EBFA4F580345FEA46066D4141
:104E700016F1800745F100054FEA17274FEA06664D
:104E800047EA0567A6F1DE46B6F1805F4FEA1525D1
:104E90001FD9384624F0010C05EBC471BCF1FE6F3C
:104EA00001EB0C1102D8F0BCBDE8008124425CBFCC
:104EB00001F5801E9EEAC47F02D4F0BCBDE80081EB
:104EC000244238D4F0BCA1F1C041BDE8004100F05B
:104ED000ABB94FEAD22242EA43524FEAD323A7FBAF
:104EE00002864FEAD02040EA415007FB03661EEAE3
:104EF0000E0F4FEAD12105FB026658BFA6EB005604
:104F0000B6EB00564FEA520E4EEAC37E18EB0E0E79
:104F100056EB530EBDD518EB02085E417F1C55F1D0
:104F20000005B6E74FF480154FF000074FF000067C
:104F30004FF00008ADE7F0BC4FF0000001F1C041B8
:104F400001F00041BDE8008111EA0C1F0CEA1315C5
:104F500000D00CE013EA0C1F00F025804FF0000099
:104F6000F0BC81EA030101F00041BDE80081F0BC22
:104F7000BDE8004181EA030100F056B9F0BCBDE88C
:104F8000004170B500F05AF8097EFC3E00F007B809
:104F900081EA03014FF0000001F00041704781EA0F
:104FA000030100F041B9F0BCBDE800414FF0000042
:104FB00021497047FFFDFBF9F7F5F4F2F0EEEDEB58
:104FC000E9E8E6E4E3E1E0DEDDDBDAD8D7D5D4D307
:104FD000D1D0CFCDCCCBCAC8C7C6C5C4C2C1C0BF53
:104FE000BEBDBCBBBAB9B8B7B6B5B4B3B2B1B0AF59
:104FF000AEADACABAAA9A8A8A7A6A5A4A3A3A2A13D
:10500000A09F9F9E9D9C9C9B9A99999897979695F7
:1050100095949393929191908F8F8E8E8D8C8C8B93
:105020008B8A89898888878786858584848383821B
:10503000828181800000FF070000F87F0EF1020EE0
:105040002EF0030E5EF8046B364205D4012A43EBC2
:10505000030515F5001F12D8012841EB010C1CF5C2
:10506000001F0CD80ED14FEAD17C15F5001F0CEBB8
:105070004C0C0CF1020C08BF4CEBD37C04E04FF05D
:10508000080C01E04FEAD37C0CEB4C0526FA05F640
:1050900006F00706B6F1040C06D20EEB860CBDE84E
:1050A00070404CF0010C6047DFE80CF0090B020285
:1050B0004FF000414FF00000A1F5002170BD1946EE
:1050C0001046012851EB010418BFD4F5001484BF29
:1050D000002001F0004170BDDFF844C170B53CEA2A
:1050E000111418BF3CEA131500F08F8011F1004F26
:1050F0001CEA13150CEA111468BF45F0050518BF2A
:1051000011EA0C1F00F079802E4621EA4C1123EAA7
:105110004C1341F4801143F48013A5F58035AC4263
:105120003DDD801A9941A4F5803609D54042C1F190
:10513000000134BFB1F10101B1F1000185F00105B9
:1051400011F4F01F08D011F4801FE8D1400041EBAA
:105150000101A4F58034F6E721F00041B1FA81F6AF
:10516000202E04BFB0FA80FE0EF12006A6F10B0639
:10517000B6F1200EA4EB06440CD2C6F1200E01FAC3
:1051800006F120FA0EF641EA0601CEF1200600FAF9
:1051900006F003E000FA0EF14FF00000BFE750EA1E
:1051A000410E23D04FEA244EBEEB254F0FDB994230
:1051B00008BF904204D00AD3520043EB0303B0E788
:1051C0004FEA1646B6EB144F08BF85F00105B4F55B
:1051D000803401EB041181EAC57100DB70BD01F17F
:1051E000C0414FF0000001F0004170BD4FEA457131
:1051F0004FF0000001F0004170BD1CEA131F09D000
:105200004FF0000001F0004170BDFFF717FF00BF35
:10521000EDFFFF3EBDE870404FF0000001497047D0
:105220000000FF070000F87F0808A0F500114FEA12
:105230003101704791EA030F10B581F000413FF54D
:1052400005AD83F0004300F009B8000010B591EA05
:10525000030F48BF83F000433FF5F8AC841A71EBAD
:10526000030C07D212198CF0004C43EB0C03001B0B
:1052700061EB0C01DFF8A4E14FEA1154A4EB135CDD
:105280001EEA430F18BF9EEA445F00F0B08023EA95
:105290006E03524221EA0451C3EB6E0338BF5B1E1A
:1052A000DCF1200E25D322FA0CFE10EB0E0043FA9F
:1052B0000CFE41EB0E01CCF1200E03FA0EFE10EBBA
:1052C0000E0051F10001CCF1200E29D412FA0EF299
:1052D00001EB0451BDE8104058BF7047401C1CBF93
:1052E000B2F1004F704700280CBF491C20F00100AC
:1052F000704712EB020E43EB030218BF4FF0010E92
:105300004EEA4202ACF1200CDCF11E0E54D943FAF5
:105310000CFE10EB0E0051F1FF31CCF11E0ED5D575
:105320000EF1010E12FA0EFE404141EB010101EBBC
:10533000445C5FEA5C5C10D910EBDE7001EB045159
:1053400038BFBEF1004FBDE8104018BF70470028BD
:105350000CBF491C20F00100704730D24FEAD42C1A
:1053600011F5001124F400641BD0B1FA81F20B3A5C
:10537000A41AA41ED2F12003914030FA03F319437A
:10538000904001EBCC71002C01EB0451BDE81040C2
:10539000A8BF704701F1C0414FF0000001F000418B
:1053A0007047B0FA80F310FA03F100D110BDE41A8F
:1053B000173C4805C90AE4E701EB045110BD491048
:1053C00001EB0451BDE810404FEA300002E04FF01D
:1053D000000170474A0008BF0042F8D0B2F5001F34
:1053E00028BF704701F000414FF0000070479EEA6F
:1053F000445F07D011EA5E0FBDE8104004BF0021F2
:1054000000207047BDE8104070B5FFF717FE00BFE1
:1054100040DFF63E83F00041104670470000E0FF99
:1054200043004FEAD30C4FEA3C0C43401FBF4007F8
:105430000CF1605113F0FE4F70471CF0006F03D168
:1054400000200CF0004170470CF0004343EA50701C
:1054500010B540EACC0000F00EF800BF000000924A
:105460004FEA0001FFF7E0BE4FF000414FF00000AF
:10547000A1F5002170470EF1020E2EF0030E5EF82A
:10548000044B244204D44FEA4102B2F17F4F11D8B9
:105490004FEA4003B3F17F4F0CD80ED14FEAD07CD6
:1054A000B2F17F4F0CEB4C0C0CF1020C08BF4CEB33
:1054B000D17C04E04FF0080C01E04FEAD17C0CEB0A
:1054C0004C0324FA03F404F00704B4F1040C06D2EC
:1054D0000EEB840CBDE810404CF0010C6047DFE897
:1054E0000CF0070802024FF00040A0F5800010BD4C
:1054F0000846420018BFD2F1807288BF00F0004019
:1055000010BD4FF04070E1EE100A7047FF2141EAF4
:10551000D050C0057047FBF70EBCFBF743BD00063B
:105520001016000610160000000000000000010226
:10553000030406070809000000000102030400003C
:1055400000000000920E493CB10AC93C2BC3163D35
:105550002EFB483D752B7B3D04A9963D80B6AF3DA3
:1055600036BDC83D2FBCE13D73B2FA3D87CF093E41
:105570008340163EB5AB223EA2102F3ECF6E3B3E7F
:10558000C2C5473E0115543E135C603E7F9A6C3E97
:10559000CCCF783EC07D823E938E883E229A8E3E4E
:1055A00032A0943E86A09A3EE59AA03E128FA63E77
:1055B000D47CAC3EEF63B23E2A44B83E491DBE3EA9
:1055C00015EFC33E53B9C93ECA7BCF3E4136D53EE7
:1055D00080E8DA3E4F92E03E7533E63EBBCBEB3ED1
:1055E000EA5AF13ECBE0F63E275DFC3EE4E7003FA1
:1055F0003D9C033F824B063F9BF5083F6B9A0B3F58
:10560000DA390E3FCDD3103F2A68133FD9F6153F44
:10561000C07F183FC6021B3FD17F1D3FCBF61F3F07
:105620009967223F25D2243F5636273F1594293FBC
:105630004AEB2B3FDE3B2E3FBB85303FC9C8323F94
:10564000F304353F233A373F4268393F3B8F3B3FB6
:10565000F9AE3D3F67C73F3F70D8413F01E2433F4E
:1056600003E4453F65DE473F12D1493FF8BB4B3F5E
:10567000029F4D3F207A4F3F3D4D513F4918533FC8
:1056800031DB543FE595563F5348583F6AF2593F46
:105690001A945B3F532D5D3F05BE5E3F2146603F40
:1056A00097C5613F5A3C633F59AA643F880F663FE4
:1056B000D86B673F3CBF683FA7096A3F0C4B6B3F05
:1056C0005E836C3F93B26D3F9ED86E3F73F56F3F24
:1056D0000809713F5213723F4714733FDD0B743F4B
:1056E0000BFA743FC6DE753F07BA763FC58B773F2E
:1056F000F853783F9812793F9DC7793F02737A3FFC
:10570000BE147B3FCDAC7B3F283B7C3FC9BF7C3F79
:10571000AC3A7D3FCCAB7D3F23137E3FB0707E3FE4
:105720006DC47E3F580E7F3F6D4E7F3FAB847F3F01
:105730000FB17F3F97D37F3F43EC7F3F11FB7F3F0C
:105740000000803F11FB7F3F43EC7F3F97D37F3FBB
:105750000FB17F3FAB847F3F6D4E7F3F580E7F3F41
:105760006DC47E3FB0707E3F23137E3FCCAB7D3F48
:10577000AC3A7D3FC9BF7C3F283B7C3FCDAC7B3FF3
:10578000BE147B3F02737A3F9DC7793F9812793FE1
:10579000F853783FC58B773F07BA763FC6DE753F33
:1057A0000BFA743FDD0B743F4714733F5213723F83
:1057B0000809713F73F56F3F9ED86E3F93B26D3FFE
:1057C0005E836C3F0C4B6B3FA7096A3F3CBF683F51
:1057D000D86B673F880F663F59AA643F5A3C633FC6
:1057E00097C5613F2146603F05BE5E3F532D5D3F3B
:1057F0001A945B3F6AF2593F5348583FE595563F2C
:1058000031DB543F4918533F3D4D513F207A4F3FC4
:10581000029F4D3FF8BB4B3F12D1493F65DE473FEA
:1058200003E4453F01E2433F70D8413F67C73F3F34
:10583000F9AE3D3F3B8F3B3F4268393F233A373F0C
:10584000F304353FC9C8323FBB85303FDE3B2E3FB6
:105850004AEB2B3F1594293F5636273F25D2243F4C
:105860009967223FCBF61F3FD17F1D3FC6021B3FEA
:10587000C07F183FD9F6153F2A68133FCDD3103F9C
:10588000DA390E3F6B9A0B3F9BF5083F824B063F80
:105890003D9C033FE4E7003F275DFC3ECBE0F63E46
:1058A000EA5AF13EBBCBEB3E7533E63E4F92E03E0B
:1058B00080E8DA3E4136D53ECA7BCF3E53B9C93E79
:1058C00015EFC33E491DBE3E2A44B83EEF63B23ECB
:1058D000D47CAC3E128FA63EE59AA03E86A09A3EAE
:1058E00032A0943E229A8E3E938E883EC07D823EA8
:1058F000CCCF783E7F9A6C3E135C603E0115543EDF
:10590000C2C5473ECF6E3B3EA2102F3EB5AB223EF6
:105910008340163E87CF093E73B2FA3D2FBCE13D6E
:1059200036BDC83D80B6AF3D04A9963D752B7B3D85
:105930002EFB483D2BC3163DB10AC93C920E493C93
:1059400000000000920E49BCB10AC9BC2BC316BDB1
:105950002EFB48BD752B7BBD04A996BD80B6AFBD9F
:1059600036BDC8BD2FBCE1BD73B2FABD87CF09BE3D
:10597000834016BEB5AB22BEA2102FBECF6E3BBE7B
:10598000C2C547BE011554BE135C60BE7F9A6CBE93
:10599000CCCF78BEC07D82BE938E88BE229A8EBE4A
:1059A00032A094BE86A09ABEE59AA0BE128FA6BE73
:1059B000D47CACBEEF63B2BE2A44B8BE491DBEBEA5
:1059C00015EFC3BE53B9C9BECA7BCFBE4136D5BEE3
:1059D00080E8DABE4F92E0BE7533E6BEBBCBEBBECD
:1059E000EA5AF1BECBE0F6BE275DFCBEE4E700BF9D
:1059F0003D9C03BF824B06BF9BF508BF6B9A0BBF54
:105A0000DA390EBFCDD310BF2A6813BFD9F615BF40
:105A1000C07F18BFC6021BBFD17F1DBFCBF61FBF03
:105A2000996722BF25D224BF563627BF159429BFB8
:105A30004AEB2BBFDE3B2EBFBB8530BFC9C832BF90
:105A4000F30435BF233A37BF426839BF3B8F3BBFB2
:105A5000F9AE3DBF67C73FBF70D841BF01E243BF4A
:105A600003E445BF65DE47BF12D149BFF8BB4BBF5A
:105A7000029F4DBF207A4FBF3D4D51BF491853BFC4
:105A800031DB54BFE59556BF534858BF6AF259BF42
:105A90001A945BBF532D5DBF05BE5EBF214660BF3C
:105AA00097C561BF5A3C63BF59AA64BF880F66BFE0
:105AB000D86B67BF3CBF68BFA7096ABF0C4B6BBF01
:105AC0005E836CBF93B26DBF9ED86EBF73F56FBF20
:105AD000080971BF521372BF471473BFDD0B74BF47
