:020000040800F2
:1000000008050020AD010008BB190008071800080A
:10001000B919000887080008F11E00080000000058
:100020000000000000000000000000001F1A00088F
:1000300089080008000000001D1A0008611A000865
:10004000C7010008C7010008C7010008C701000870
:10005000C7010008C7010008C7010008C701000860
:10006000C7010008C7010008C7010008C701000850
:10007000C7010008C7010008C7010008C701000840
:10008000C7010008C7010008C70100080000000000
:10009000000000000000000000000000C701000890
:1000A000C7010008C7010008C7010008C701000810
:1000B000C7010008C7010008C7010008C701000800
:1000C000C7010008C7010008C7010008C7010008F0
:1000D000C7010008C7010008C701000800000000B0
:1000E000C7010008C7010008C701000800000000A0
:1000F000000000000000000000000000C701000830
:1001000000000000C7010008C7010008C70100087F
:1001100000000000000000000000000000000000DF
:10012000C7010008C7010008C7010008C70100088F
:10013000C7010008000000000000000000000000EF
:10014000000000000000000000000000C7010008DF
:10015000C7010008C7010008C7010008C70100085F
:10016000C7010008C70100080000000000000000EF
:10017000000000000000000000000000000000007F
:1001800000000000C701000800000000000000009F
:10019000C7010008DFF810D000F0F4FA004800476B
:1001A000712A0008AFF30080080500200648804748
:1001B00006480047FEE7FEE7FEE7FEE7FEE7FEE74C
:1001C000FEE7FEE7FEE7FEE7F91A000895010008E2
:1001D0002DE9F05F0546002092469B46884606467C
:1001E000814640241BE0284641464746224600F00F
:1001F00086F853465A46C01A914110D31146184604
:10020000224600F06DF82D1A67EB01084F46224692
:100210000120002100F064F817EB00094E41201E78
:10022000A4F10104DFDC484631462A464346BDE8D6
:10023000F09FD2B201E000F8012B491EFBD27047BB
:100240000022F6E710B513460A4604461946FFF7A2
:10025000F0FF204610BD00F0004230F000400AD010
:10026000C10D01F56071C0F3160042EA0151C208E8
:1002700040071143704700200146704701F00043DA
:1002800030B421F0004150EA010206D00A0DA2F577
:100290006072C1F31301002A02DC30BC00207047F9
:1002A000440F44EAC104C100E01830BC00EBC25066
:1002B00000F035B830B50B4601460020202201245D
:1002C00009E021FA02F59D4205D303FA02F5491B24
:1002D00004FA02F52844151EA2F10102F1DC30BD3A
:1002E000202A04DB203A00FA02F1002070479140F6
:1002F000C2F1200320FA03F3194390407047202AEB
:1003000004DB203A21FA02F00021704721FA02F3BF
:10031000D040C2F12002914008431946704700299D
:10032000A8BF7047401C490008BF20F0010070477B
:1003300010B4B0FA80FC00FA0CF050EA010404BFDB
:1003400010BC704749B1CCF1200421FA04F411FA31
:100350000CF118BF012121430843A3EB0C01CB1D75
:100360004FEA00614FEA102042BF002010BC7047E6
:1003700000EBC35010440029A4BF10BC7047401CC0
:10038000490008BF20F0010010BC70472DE9FE4F66
:10039000804681EA0300C00F0C46009021F0004126
:1003A00023F00045B8EB0200A94105D240462146A2
:1003B00090461C460B46024623F00040104347D0AF
:1003C000270DC7F30A00C3F30A510290401A0190A7
:1003D00040286BDAC3F3130040F4801B0098924668
:1003E00020B10023D2EB030A63EB0B0B01985946B3
:1003F000C0F140025046FFF773FF06460D465046D7
:100400005946019A00F0D0F910EB08006141002430
:1004100087EA115284EAE7731A4340D0009A62B324
:10042000019A012A4FEA075215DC001B61EB020119
:100430004FF0004202EA0752CDE90042001C41F5AC
:10044000801132462B4600F0D0F903B0BDE8F08FA2
:1004500040462146F9E7001B61EB0201001C41F513
:10046000801300185B412018A2F5001747EB030129
:1004700040EAD570B6196D4111E06D084FEA3606B5
:1004800045EAC0754FEA0752001B61EB0201001CF0
:1004900041F5801149084FEA3000001951413246B8
:1004A0002B4603B0BDE8F04F00F090B90098012250
:1004B00040000023D0EB020263EBE073009821467A
:1004C0004FEAE074B8EB000061EB0401E9E783F068
:1004D00000435BE781F0004158E72DE9FE4F81EAD8
:1004E000030404F0004421F0004100944FF0000B9D
:1004F00023F0004350EA01045ED052EA03045BD0CB
:10050000C3F30A54C1F30A552C44A4F2F334019402
:10051000A0FB0254C1F3130141F48011C3F3130390
:1005200043F4801301FB024400FB034E840A970A44
:1005300044EA815447EA8357A4FB076802958D0A71
:1005400005FB07854FEA932C04FB0C542705029DFD
:100550004FEA065847EA1637B5EB08056EEB070C6D
:10056000870E920E47EA811742EA8312A7FB020127
:10057000B6EB0B0164EB00042B0D43EA0C335E1861
:1005800044EB1C50DA465146E7FB0201C5F3130465
:100590004FEA0B3343EA14534FEA0432019C43EA17
:1005A0000603A4F10C040294009CCDE900B400F011
:1005B0001CF903B0BDE8F08F00200146F9E72DE9F2
:1005C000F04D81EA030404F0004B21F0004514468D
:1005D0004FF0000A23F0004150EA050220D054EA0F
:1005E00001021DD0C5F30A570246C5F31303C1F338
:1005F0001300C1F30A5640F4801543F48013A7EBAF
:100600000608101BD64608F2FD3873EB050002D32E
:1006100008F1010801E092185B41B8F1000F03DA1C
:1006200000200146BDE8F08D00204FF48011064601
:1006300084460EE0171B73EB050705D3121B63EB13
:10064000050306434CEA010C49084FEA30009218B2
:100650005B4150EA0107EDD152EA030012D082EA71
:10066000040083EA0501084305D0101BAB4106D204
:100670000122002306E000224FF0004302E06FF069
:10068000010253101AEB06004CEB085110EB0A0064
:1006900041EB0B01BDE8F04D00F098B82DE9FE4F9D
:1006A000C3F30A5701F000450024C1F30A56C3F30F
:1006B0001303C1F3130143F4801312EB020AA6469D
:1006C00041F48011009543EB030CA7F1010B16E0F8
:1006D000B0EB0A0061EB0C01071E71F1000707DAAD
:1006E0004FF00008D0EB080085F0004568EB0101F1
:1006F000171A73EB0107EBD3761E001849415E45CC
:10070000F6DA50EA010209D0CDE900E500221346ED
:10071000029600F06AF803B0BDE8F08F2046009919
:10072000F9E7C1F30A52C1F3130140F2FF3341F478
:1007300080119A4202DA00200146704740F23343AA
:100740009A42A2F2334202DC5242FFF7D8BDFFF7D1
:10075000C7BD000030B5041E71F1000404DB4FF08A
:100760000044404264EB0101141E73F1000405DBF8
:100770001C464FF00043524263EB0403994208BF0A
:10078000904230BD064C074D06E0E06840F00103A2
:1007900094E8070098471034AC42F6D3FFF7FEFC0C
:1007A0004835000868350008202A06DBCB17203AB8
:1007B00041FA02F043EAE07306E041FA02F3D04066
:1007C000C2F12002914008431946704710B5141E2B
:1007D00073F1000408DA401C41F1000192185B41FA
:1007E0001A4301D120F0010010BD2DE9F04D9246D1
:1007F0009B4611B1B1FA81F202E0B0FA80F22032E8
:100800009046FFF76DFD04460F4640EA0A0041EAB4
:100810000B0153465A46084313D0114653EA0100D0
:1008200019D0C8F140025046FFF769FD05460E4653
:10083000504659464246FFF753FD084305D0012074
:1008400004E020463946BDE8F08D0020054346EA25
:10085000E0762C4337430A986305E40AA0EB0800CE
:100860000022FD0A44EA47540A3002D5002001461E
:10087000E9E7010510196941DDE9084500196941F9
:10088000BDE8F04DA2E7FEE7704772B6FEE7000054
:100890002DE9F84FDFF8B8A10022012403254FF01D
:1008A0000F090AF1040BAAF1040E00BF0B6804FA49
:1008B00002F63340B34273D10F7907F00307012FDB
:1008C00001D0022F16D187684FEA420805FA08FCCA
:1008D00027EA0C07D1F80CC00CFA08FC4CEA070C0C
:1008E000C0F808C04768B7430E79C6F300169640B3
:1008F0003E4346600E79F643B6070DD0C7685600F2
:1009000005FA06FC27EA0C07D1F808C00CFA06FC29
:100910004CEA070CC0F80CC00E7906F00306022E54
:1009200010D1D60800EB8608D8F8206057074FEAA8
:10093000D76C09FA0CF7BE430F6907FA0CF7374377
:10094000C8F8207006684FEA420C05FA0CF7BE435F
:100950000F7907F0030707FA0CF7374307604E6873
:1009600016F4403F6DD03B4E376847F48047376000
:10097000366822F0030706F480460096364E07EBF1
:10098000060CDCF8086897073F0F09FA07F826EA13
:100990000806DFF8C880404503D14FF000081EE08C
:1009A0004FE0DFF8BC80404502D14FF0010816E06F
:1009B000DFF8B080404502D14FF002080FE0DFF8C9
:1009C000A880404502D14FF0030808E0DFF89C8082
:1009D000404502D14FF0040801E04FF0070808FA43
:1009E00007F848EA0608CCF80888DAF800605746A5
:1009F000D1F804C09E435FEACC2C00D51E433E6074
:100A0000DBF800605F46D1F804C09E435FEA8C2C9F
:100A100000D51E433E60DEF800607746D1F804C082
:100A20009E435FEA8C3C00D51E433E60084F083F62
:100A30003E68D1F804C09E435FEACC3C00D51E431B
:100A40003E60521C102AFFF431AFBDE8F88F000061
:100A5000083C0140443802400030014000000240A0
:100A60000004024000080240000C02400010024056
:100A70000AB1816170470904FBE700000148806802
:100A8000704700000000002002488168027811448D
:100A900081607047000000200B4810B5016841F4E8
:100AA00000710160016841F480610160016841F4F6
:100AB00080710160032000F061F80F2000F006F85B
:100AC00000F024F8002010BD003C024070B50D4D30
:100AD00004464FF47A712878B1FBF0F00A490968AE
:100AE000B1FBF0F000F0A4FB48B9102C07D20022B3
:100AF0002146501E00F022F800206C6070BD0120DD
:100B000070BD0000000000200C0000200A4808B55D
:100B1000016841F480410160006800F48040009069
:100B20000548001F016841F080510160006800F035
:100B30008050009008BD000044380240F0B40E4BD5
:100B40001B680C46C3F30223C3F10705042D00D92B
:100B50000425191D072901D2002300E0DB1E012610
:100B600006FA05F1491E214099409E40761E164026
:100B70003143F0BC01F0CEB90CED00E0064900F0C5
:100B8000070208684FF6FF03184040EA0220034AB4
:100B900010430860704700000CED00E00000FA050B
:100BA0002DE9F0470E46050065D0DFF81481D8F82E
:100BB0000000F7B200F00700B04207D288F80070DA
:100BC000D8F8000000F00700B04254D128683D4C2E
:100BD000810712D5400703D5206840F4E05020601B
:100BE0002878000703D5206840F460402060206822
:100BF000A96820F0F000084320602878C0072DD0B5
:100C0000304968680839012812D0022813D0032817
:100C100011D00968890700292DDA216821F0030124
:100C200001432160FFF72AFF814641F2883A0EE036
:100C300009688903EFE709688901ECE7FFF71EFF00
:100C4000A0EB0901514502D90320BDE8F0872068D7
:100C5000696800F00C00B0EB810FEFD1D8F80010FC
:100C6000404601F00701B14207D90770006800F063
:100C70000700B04201D00120E7E72878400705D5FA
:100C80002068E96820F4E0500843206028780007D5
:100C900006D52068296920F4604040EAC100206040
:100CA00000F038F82168084AC1F30311515CC840CC
:100CB0000649086006480068FFF708FF0020C4E7FF
:100CC000003C0240083802402C2D00080C00002097
:100CD000040000200448054900680968044AC1F37B
:100CE0008221515CC84070470C0000200838024047
:100CF0003C2D00080448054900680968044AC1F30E
:100D00004231515CC84070470C0000200838024056
:100D10003C2D0008154810B5006810F00C0214486E
:100D200013D01449042A0FD0082A0ED10F4C241FC7
:100D30002268236802F03F025B0207D52068C0F3F7
:100D40008810A0FB010106E0084610BD2168C1F330
:100D50008811A1FB00010023FFF73AFA2168C1F3D3
:100D60000141491C4900B0FBF1F010BD08380240B8
:100D70000024F40040787D012DE9F84F04006ED086
:100D80002078DFF84C93C007A9F104054AD009F197
:100D900004000168C1F38101012908D00068C0F393
:100DA000810002280AD1D9F80000400206D528683F
:100DB000800337D560680028E1D033E06068B0F583
:100DC000803F10D0B0F5A02F286810D020F48030DC
:100DD0002860286820F4802028606068A8B1FFF7A8
:100DE0004DFE06460DE0286840F48030F4E740F4FC
:100DF00080202860F7E700BFFFF740FE801B6428D3
:100E000073D828688003F7D50CE0FFF737FE064655
:100E100005E000BFFFF732FE801B6428F0D8286889
:100E20008003F7D42078DFF8AC8280074FF0000A07
:100E30003ED5A748001D016811F00C0F08D00068CE
:100E4000C0F3810002280BD1D9F80000400207D47A
:100E50002868800716D5E068012800D112E033E148
:100E6000E068B8B10120C8F80000FFF707FE0646A9
:100E700005E000BFFFF702FE801B0228C0D82868EB
:100E80008007F7D52868216920F0F80040EAC10002
:100E900028600DE0C8F800A0FFF7F0FD064604E06A
:100EA000FFF7ECFD801B02281FD828688007F7D4C5
:100EB0002078000722D5864F87486169703771B165
:100EC00001210160FFF7DAFD064604E0FFF7D6FDD9
:100ED000801B022809D838688007F7D50EE0C0F8D3
:100EE00000A0FFF7CBFD064605E082E0FFF7C6FD58
:100EF000801B02287DD838688007F7D42078400707
:100F000068D5DFF8CCB100270BF13C0BDBF8000013
:100F1000C0000BD4DBF8001041F08051CBF800107A
:100F2000DBF80000012700F0805000906B4E306825
:100F3000C00510D4306840F480703060FFF79EFD2B
:100F4000009005E0FFF79AFD0099401A022850D85A
:100F50003068C005F6D55E4EA0686C3601280FD00B
:100F60000528306810D020F001003060306820F093
:100F700004003060A068B8B1FFF780FD00900FE07A
:100F8000306840F00100F4E740F004003060F7E71B
:100F9000FFF774FD0099411A41F28830814266D80A
:100FA00030688007F4D50EE0FFF768FD009007E099
:100FB000FFF764FD0099411A41F28830814256D80A
:100FC00030688007F4D42FB1DBF8001021F0805195
:100FD000CBF80010A069C8B33D49091D0968C1F3E9
:100FE000810102294AD00228504607D0C8F8600083
:100FF00000E03CE0FFF742FD04463BE04746C8F80E
:101000006000FFF73BFD064605E000BFFFF736FD39
:10101000801B02282BD828688001F7D4D4E9070167
:101020000843A16A2E4A490802EB0141626A41EA7B
:101030008211084394F82C1040EA0161C9F80010AD
:1010400001203866FFF71AFD044606E03EE000BFC7
:10105000FFF714FD001B022809D828688001F7D586
:1010600034E000BFFFF70AFD001B022802D903206D
:10107000BDE8F88F28688001F4D427E00128F7D074
:10108000D9F80000E26900F4800191421CD1226A83
:1010900000F03F01914217D147F6C071626A0140EA
:1010A000B1EB821F10D1A26A4FF0FF3300F4403140
:1010B00003EB5202B1EB024F06D194F82C1000F072
:1010C0007060B0EB016F01D00120D1E70020CFE7C5
:1010D0000438024000004742800E47420070004042
:1010E0000000FFFF70B5040009D0606A002540B120
:1010F00025616561A56294F8510040B10CE00120C2
:1011000070BD6068B0F5827FF4D0E561F2E784F8E5
:101110005050204600F044F8022084F85100206826
:10112000016821F040010160A088218900F48270EB
:1011300001F404410843A18901F400610843217CC2
:1011400001F002010843217D01F001010843218BD8
:1011500001F400710843217F01F03801084394F83D
:10116000201001F080010843218D01F40051084353
:1011700021680860A069042101EA104094F8241055
:1011800001F010010843216848602068C16921F41A
:101190000061C1616565012084F85100002070BDC7
:1011A000F0B587B0044614216846FFF749F81C499A
:1011B0002068884232D11B480024016841F48051E4
:1011C0000160006800F480500590164814380168EA
:1011D00041F001010160016801F001010591016820
:1011E00041F0020101600068022500F00200059054
:1011F0002020CDE9000502AA0326052782E8D000B9
:1012000069460948FFF744FB3020CDE9000502AAF2
:10121000694682E8D0000548FFF73AFB07B0F0BD09
:101220000030014044380240000002400004024007
:1012300010B5401EB0F1807F01D3012010BD4FF0EA
:10124000E02460610F21601700F064FE0020A061BF
:1012500007202061002010BD70B590F83C20012AC5
:101260002CD0012480F83C40022280F83D20036805
:101270005A689D6822F070060A6832435A60104B23
:1012800002689A420ED0B2F1804F0BD00D4B9A42B9
:1012900008D00D4B9A4205D00C4B9A4202D00C4B11
:1012A0009A4204D1496825F080031943916080F87F
:1012B0003D40002180F83C10084670BD022070BD02
:1012C000000001400004004000080040000C004005
:1012D0000040014010B5040003D094F83D0010B167
:1012E00007E0012010BD002084F83C00204600F0FB
:1012F0001FF8022084F83D00211D206800F004FC46
:10130000012084F8460084F83E0084F83F0084F809
:10131000400084F8410084F8420084F8430084F8D7
:10132000440084F8450084F83D00002010BD000012
:1013300008B500680649884208D10648016841F0AE
:1013400002010160006800F00200009008BD00008A
:10135000000400404038024070B5044690F83C005C
:101360000025012817D0012684F83C60022084F86B
:101370003D002068826822F0770222F47F4282607A
:101380000868502838D00DDC20284FD005DC90B3F9
:10139000102811D14AE0022070BD302846D04028E4
:1013A0000AD13BE060282FD070280DD0B0F5805FC7
:1013B00003D0B0F5005F12D0012584F83D60002015
:1013C00084F83C00284670BDCB68D1E90121206833
:1013D00000F0F3FB2068816841F0770109E0CB68F9
:1013E000D1E90121206800F0E8FB2068816841F420
:1013F00080418160E1E719E0CA684968206800F02F
:1014000091FC5021206806E0CA684968206800F015
:101410009AFC6021206800F0DAFBCEE7CA684968D0
:10142000206800F07FFC40212068F4E72268014634
:101430001046F0E730B587B0044614216846FEF741
:10144000FFFE16492068884226D11548002401680D
:1014500041F001010160016801F00101059101689D
:1014600041F0020101600068022500F002000590D1
:10147000C0200090CDE9015469460A48CDE90345F2
:10148000FFF706FA01200090CDE9015469460648AD
:10149000CDE90345FFF7FCF907B030BD000400407B
:1014A00030380240000002400004024070B504469B
:1014B00090F83C0000260D4601280FD0012084F84A
:1014C0003C006AB1042A1DD0082A2FD00C2A3FD034
:1014D0000126002084F83C00304670BD022070BD1B
:1014E000206800F07DFB2068816941F0080181617E
:1014F0002068816921F004018161206881692A697D
:10150000114311E0206800F093FB2068816941F4E9
:10151000006181612068816921F4806181612068B6
:1015200081692A6941EA02218161D2E7206800F0DD
:10153000ABFB2068C16941F00801C1612068C16945
:1015400021F00401C1612068C1692A69114311E0D9
:10155000206800F0C5FB2068C16941F40061C161E9
:101560002068C16921F48061C1612068C1692A696C
:1015700041EA0221C161ACE710B5040003D094F840
:101580003D0010B107E0012010BD002084F83C00B0
:10159000204600F01EF8022084F83D00211D20683E
:1015A00000F0B2FA012084F8460084F83E0084F886
:1015B0003F0084F8400084F8410084F8420084F839
:1015C000430084F8440084F8450084F83D0000207E
:1015D00010BD704710B50446022249B104290ED04F
:1015E000082913D094F84100012816D0012010BD1D
:1015F00094F83E000128F9D184F83E200FE094F8D9
:101600003F000128F2D184F83F2008E094F8400020
:101610000128EBD184F8402001E084F84120012228
:10162000206800F0BDFA12492068884203D1426C5C
:1016300042F400424264206888420ED0B0F1804FEC
:101640000BD00C49884208D00B49884205D00B4981
:10165000884202D00A49884204D1816801F007011A
:10166000062903D0016841F001010160002010BD8E
:10167000000001400004004000080040000C004051
:101680000040014070B5040004D094F83D000025EE
:1016900010B106E0012070BD84F83C50204600F0F7
:1016A00023F8242084F83D002068C16821F400510B
:1016B000C160204600F05AFB2068016921F4904186
:1016C00001612068416921F02A0141612068C168F7
:1016D00041F40051C1602564202084F83D0084F865
:1016E0003E00002070BD000010B586B004461421F5
:1016F0006846FEF7A5FD14492068884221D11348A9
:101700000021026842F010020260006800F0100040
:1017100005900E481438026842F001020260006829
:1017200000F0010005904FF4C06000900220CDE968
:101730000101032003900720049069460448FFF745
:10174000A7F806B010BD0000001001404438024068
:10175000000002402DE9F843044690F83D001F4682
:1017600016460D4620284CD1C5B1BEB194F83C00B8
:10177000012846D0012084F83C004FF00008C4F84E
:101780004080212084F83D00FFF778F9A684814647
:10179000E684A068B0F5805F03D004E00120BDE8D6
:1017A000F883206928B12E465FF0000584F83C805C
:1017B0000EE00026FAE78021204600F05DFBA0B98C
:1017C000AEB116F8010B21684860E08C401EE08441
:1017D000E08C4B464FF0000200970028EBD14FF011
:1017E0004001204600F048FB30B10320D7E735F830
:1017F000020BC0F30800E6E7202084F83D0000203B
:10180000CDE70220CBE7FEE770B586B0142168462D
:10181000FEF716FD16480025016841F080010160C1
:10182000016801F080010591016841F0010101604A
:10183000016801F001010591016841F002010160B8
:101840000068012200F002000A4ED40305902146F0
:101850003046FFF70DF90120CDE900400320CDE926
:10186000025069463046FFF713F806B070BD00001D
:101870003038024000040240114810B50F490160A1
:101880004FF48271416000214FF40062C0E90212FE
:101890000222026101224261520282611022C0E9E9
:1018A0000721416281620A21C162FFF71BFC002807
:1018B00003D0BDE81040FEF7E8BF10BD0030014086
:1018C0002400002010B58EB00024079408940994D9
:1018D0000A940B941C2168460C94FEF7B1FC27482F
:1018E0002549C0E900142021816040F6EF21C0E9BC
:1018F000031480218161FFF7EDFC08B1FEF7C5FFFD
:101900004FF48050079007A91C48FFF725FD08B148
:10191000FEF7BBFF1948FFF72FFE08B1FEF7B5FF32
:101920000B940BA915480C94FFF796FC08B1FEF731
:10193000ACFF6020CDE900040294002269460F4804
:101940000494FFF7B3FD08B1FEF79FFF0422694638
:101950000A48FFF7ABFD08B1FEF797FF082269467A
:101960000648FFF7A3FD08B1FEF78FFF0348FFF716
:1019700061FD0EB010BD0000000400407C0000209E
:101980000C4810B50A4901604FF4E1314160002173
:1019900081600C22C160C0E904128161C161FFF75E
:1019A00071FE002803D0BDE81040FEF76EBF10BDE9
:1019B00000100140C4000020FEE7FEE710B50C4C0B
:1019C000F0EE400A94ED000A94ED011A00EE810A4F
:1019D00000F01AFCF1EE0C0A84ED000A20EE201A49
:1019E000BDE81040DFED030AB6EE000A01F054B87E
:1019F000140000200000000010B500210648FFF789
:101A0000E9FD04210448FFF7E5FDBDE81040082189
:101A10000148FFF7DFBD00007C00002070477047E1
:101A2000DFED0D1A0D4820EE210A0268BCEEC00A57
:101A300010EE101A516320EEA10A0268BCEEC00A33
:101A400010EE101A916321EE210A0068BCEEC00A64
:101A500010EE101AC163704700002F457C00002073
:101A6000FFF712B830B593B030216846FEF7E8FBB7
:101A700014210CA8FEF7E4FB1D480024016841F086
:101A800080510160006800F0805011901948016891
:101A900021F4404141F4004101600068022500F456
:101AA000404011900120039010200490009506956D
:101AB0000820CDE907405420CDE9090504200B900A
:101AC0006846FFF759F908B172B6FEE70F20CDE975
:101AD0000C054FF48050CDE90E4002210CA8109463
:101AE000FFF75EF8002801D072B6FEE713B030BDF4
:101AF00040380240007000400248016841F4700123
:101B00000160704788ED00E0F0B502681D4B1E4C87
:101B10009F031E4D1E4E984207D0B84205D0A042EA
:101B200003D0A84201D0B04204D122F0700C4A6820
:101B300042EA0C02984210D0B8420ED0A0420CD01B
:101B4000A8420AD0B04208D0124CA04205D0124C94
:101B5000A04202D0114CA04203D122F44074CA68C2
:101B600022434C6922F08002224302608A68C262EA
:101B70000A688262984201D10969016301214161C9
:101B8000F0BD0000000001400004004000080040DB
:101B9000000C00400040014000440140004801406A
:101BA00010B501F01F030121046A99408C430462BF
:101BB000016A9A401143016210BD10B5846842EA7F
:101BC000032224F47F440A432243826010BD8268CA
:101BD00022F070020A4342F0070181607047000062
:101BE00030B5026A22F001020262026A4368846927
:101BF00024F073050C682C4322F002058A682A43FE
:101C00000A4DA8420BD122F00805CA6823F440739C
:101C10002A434D6922F004021D438B692B43436024
:101C2000846149684163026230BD000000000140E8
:101C300030B5026A22F010020262026A43688469C7
:101C40000D6824F4E64444EA05248D6822F020025D
:101C500042EA05120B4DA8420ED1CD6822F0800257
:101C600042EA05124D6923F4406343EA85038D6916
:101C700022F0400243EA850343608461496881633E
:101C8000026230BD0000014030B5026A22F4807269
:101C90000262036A4268C46923F4007324F0730586
:101CA0000C682C438D6843EA05230C4DA8420ED1E5
:101CB000CD6823F4006343EA05234D6922F44052C2
:101CC00042EA05128D6923F4806342EA05124260FC
:101CD000C4614968C163036230BD00000000014077
:101CE00030B5026A22F480520262046A4268C36913
:101CF0000D6823F4E64343EA05238D6824F4005479
:101D000044EA0534064DA84204D14D6922F48042CC
:101D100042EA85124260C36149680164046230BDD1
:101D20000000014010B5036A046A24F00104046253
:101D3000846924F0F00444EA021423F00A020A43FE
:101D40008461026210BD10B5036A23F010030362C0
:101D50008369046A23F4704343EA023224F0A00347
:101D600043EA01118261016210BD000070B50446B2
:101D700000680169E26821F4405111430161216961
:101D8000A068E26908436169114308432168CA6891
:101D900049F20C639A430243CA6020684169A26910
:101DA00021F440711143416131492068884202D0D9
:101DB0003049884202D1FEF79DFF01E0FEF78AFF1D
:101DC000E2690023192164253226B2F5004F6268CA
:101DD00028D0A0FB0101930F9200FEF7F9F901460C
:101DE000B0FBF5F06FF01802504301EB800006EBFA
:101DF0000010B0FBF5F000F0F002B1FBF5F002EBE3
:101E00000012B1FBF5F06FF01803584301EB8000AE
:101E100006EB0010B0FBF5F000F00F002168104455
:101E2000886070BDA0FB010192185B41FEF7D0F9FC
:101E30000146B0FBF5F00201B1FBF5F06FF01803BD
:101E4000584301EB800006EBC000B0FBF5F000F05A
:101E5000F80002EB4002B1FBF5F0584301EB8000C3
:101E600006EBC000B0FBF5F000F00700D6E700007D
:101E700000100140001401402DE9F041984617463A
:101E80000E460446069D27E0681C25D02DB1FEF7BE
:101E9000F5FDA0EB0800A8421ED920680C3050E8E0
:101EA000001F21F4D07140E80012002AF5D120680B
:101EB000143050E8001F21F0010140E80012002A10
:101EC000F5D1202084F83D0084F83E00002084F8FD
:101ED0003C000320BDE8F0812068006836EA00007D
:101EE00004D00020B842CFD00020F3E70120F9E76A
:101EF000FEE700000FB4054B10B503A9044A029891
:101F000000F0A4F910BC5DF814FB0000592A000889
:101F10001C0000200907090E002804DB00F1E02066
:101F200080F80014704700F00F0000F1E02080F806
:101F3000141D704710B52DED040B86B09DED060BFA
:101F400010EE100A10EE901A8DED000B002818BF4D
:101F50000120084320F00040C0F17F6000F1E04024
:101F6000C00F21D19DED080B10EE101A10EE900A53
:101F70008DED000B002918BF0121084320F000401F
:101F8000C0F17F6000F1E040C00F0DD129490798F2
:101F9000B1EB400F04BF0698002842D009984000DA
:101FA00004BF089800283CD09DED080B53EC102B83
:101FB0009DED060B51EC100BFEF770FBCDE9020115
:101FC0009DED020B40F2FF7110EE900A8DED000BBB
:101FD00031EA105021D00798039900F0004001F039
:101FE0000041884219D09DED080B8DED040B9DED4D
:101FF000020B8DED000B10EE900A059961F31E00A7
:1020000005909DED041B9DED020B51EC110B53EC63
:10201000102BFEF75FFACDE902019DED020B0AB02D
:1020200010BD012000F028F80AB0BDE8104000F013
:1020300003B800000000E0FF9FED050B10B553EC66
:10204000102B51EC100BFEF7BAFA41EC100B10BD3F
:10205000000000000000000002E008C8121F08C1D4
:10206000002AFAD170477047002001E001C1121F19
:10207000002AFBD17047000001490860704700004A
:10208000200000202DE9FF5F82B00021DDE904304F
:10209000020DDDF840B0034318D044F61050A2F210
:1020A000FF3242431514119801281FD0A5EB0B00F5
:1020B000401C5FEA000A4FF000064E4FDFF83891EF
:1020C000B046504615D5CAF1000413E0119801241A
:1020D0004AA3012801D16FEA0B010298119AC0E9C5
:1020E0000031C0E9024206B0BDE8F09FCBF100002C
:1020F000DFE704460021404A491842EB0450CDE98D
:10210000001012E0E00707D032463B464046494601
:10211000FEF7E3F98046894632463B4610461946AB
:10212000FEF7DBF906460F466410002CEAD1DDE924
:102130000401DDE90023BAF1000F06DAFEF7CDF95C
:1021400042464B46FEF7C9F905E0FEF738FA42462B
:102150004B46FEF734FA04460E460022284BFEF7A3
:10216000F9FA03D84FF0FF30014607E00022254B73
:1021700020463146FEF70AF9FEF7D3FA102409E0AB
:10218000002C0ADB0A220023FEF722F8039B3032E0
:102190001A55641E50EA0102F2D1641C039AC4F17C
:1021A00011031444119A012A03D0012208430DD1CE
:1021B0000AE0084304D000204FF0110B119072E7A1
:1021C000A3EB0B056D1E0DE05B4504DD4FF0000237
:1021D00005F1010504E003DA4FF00002A5F1010565
:1021E000002AECD002981199C0E90231C0E90045FB
:1021F00079E70000000014400000F03F30000000CC
:102200000000F0430000E03F10B510EE100AFEF7AA
:1022100022F841EC100B9FED0A1BFFF78BFE51ECEF
:10222000100BFEF72BF800EE100AB5EEC00AF1EE27
:1022300010FA03DADFED040A30EE200A10BD0000C8
:1022400000000060FB211940DB0FC9402DE9FF4F62
:1022500095B09A46884606460025EEE1252877D1B6
:1022600000242746F94A0121039400E0044316F8AC
:10227000013F203B01FA03F01042F7D130782A28C1
:1022800011D06FF02F033078A0F13002092A16D850
:10229000039A44F0020402EB820203EB4202104470
:1022A000761C0390EFE758F8042B0392002A03DA18
:1022B000504244F40054039044F00204761C3078F9
:1022C0002E2816D116F8010F44F004042A280DD048
:1022D0006FF02F023078A0F13003092B09D807EBFB
:1022E000870302EB4303C718761CF3E758F8047B17
:1022F000761C30786C280FD006DC4C2817D0682864
:102300000DD06A2814D104E0742810D07A280FD197
:102310000DE044F400140AE044F4801401E044F4B5
:1023200040147278824202D104F58014761C761C27
:10233000307866280BD013DC582877D009DC0028C9
:1023400075D04528F6D04628F4D047281AD193E115
:1023500018E0632835D0642879D0652812D18BE144
:10236000702873D008DC6728F1D069286FD06E28F8
:102370000DD06F2806D1ACE073282CD0752874D00E
:10238000782853D05246179990476D1C54E1C4F3F6
:102390000250022809D003280DD0D8F800100428D4
:1023A0000DD00D6008F1040846E1D8F80010EA17D6
:1023B000C1E90052F6E7D8F800100D80F2E70D7081
:1023C000F0E718F8041B8DF8001000208DF80100CC
:1023D000EB46012003E058F804BB4FF0FF306107E3
:1023E0004FF0000102D40DE009F101018946B94224
:1023F0000FDA8145F8DB1BF809100029F4D108E059
:1024000009F1010189468142FADB1BF80910002914
:10241000F6D103985346A0EB090721463846179A90
:1024200000F080FA284400EB090507E044E008E1E9
:102430000DE01BF8010B524617999047B9F10109BD
:10244000F7D2534621463846179AF2E039E00A217E
:10245000C4F302524FF0000B0091022A06D058F844
:10246000040BC117032A09D00AE023E008F1070092
:1024700020F00702F2E80201904605E000B2C11721
:10248000042A01D140B2C117002906DA0A46002108
:10249000404261EB02012D2202E0220504D52B22ED
:1024A0008DF80420012203E0E20701D02022F7E7A3
:1024B000914657E00A2100E010214FF0000B0091F7
:1024C0000BE010214FF0000B44F0040408270091AA
:1024D00003E008204FF0000B0090C4F30252022AE0
:1024E00005D058F8040B0021032A08D008E008F1B1
:1024F000070020F00702F2E80201904603E080B2F4
:10250000042A00D1C0B24FF0000922072AD5327840
:10251000702A07D0DDF800C08CF0100C5CEA0B0CC0
:1025200005D00EE040228DF80420012208E050EA98
:10253000010306D030238DF804308DF805200222E7
:102540009146009B83F0080353EA0B030AD150EA3B
:10255000010201D1620705D530228DF804204FF029
:1025600001097F1E3278582A04D039A20C920CAA95
:1025700002920BE03BA2F9E75B46009AFDF728FECA
:102580000C9B9B5C029A521E0292137050EA01024D
:10259000F2D1029804A9081A00F1200B600702D5B5
:1025A00024F4803400E001275F4502DDA7EB0B0037
:1025B00000E0002000EB0B01009003984944401A12
:1025C0000390E00306D453462146179A039800F07F
:1025D000A9F90544002706E001A85246C05D1799F5
:1025E00090476D1C7F1C4F45F6DBE0030CD553462E
:1025F0002146179A039800F095F9054404E030202D
:102600005246179990476D1C0099481E009000296A
:10261000F5DC08E00298029952460078491C0291C4
:10262000179990476D1CBBF10001ABF1010BF1DC78
:102630005BE100F065F90544761C307800287FF4F2
:102640000DAE19B02846BDE8F08F00000928010042
:102650003031323334353637383961626364656618
:1026600000000000303132333435363738394142DA
:102670004344454600000000600700D4062708F1E7
:10268000070020F00700F0E80223804603F0004C2A
:102690005FEA0C0001D097A009E0200501D596A0C3
:1026A00005E0E00701D095A001E0AFF24C001390E7
:1026B000307823F0004365280CD006DC452809D08B
:1026C00046281DD047287FD13BE0662818D06728D0
:1026D0007AD136E00021112F01DB112000E0781CB7
:1026E000CDE9000104A90CA8FFF7CCFCDDE90D0140
:1026F0000C9A4FF0000B07F10109109200914EE087
:102700004FF000400097CDE9011004A90CA8FFF795
:10271000B9FCDDE90D020C9B0F994FF0000B9146BF
:102720001093009211B9791C00EB0109B7EB090075
:1027300003D4C0F1FF3B07F10109A9EB07000190A9
:1027400042E0012F00DA01270021112F01DD1120C5
:1027500000E03846CDE9000104A90CA8FFF792FC7F
:10276000DDE90D010C9A00914FF0000BB946109273
:1027700021070FD4009A4A4503DA914601E0A9F1F6
:102780000109B9F1010F05DD109AA9F10101515CB0
:102790003029F4D0B84202DA10F1040F03DA012133
:1027A000CDE9011010E0002803DC8344A9EB00010F
:1027B00002E0411C494500DD8946A0EB0B00401CAE
:1027C00001904FF000400290200705D40198484541
:1027D00002DB4FF0FF30019000208DF84B00029893
:1027E0000DF14B07B0F1004F25D002200C902B20AB
:1027F0000D90029800280CDA404202902D200D9096
:1028000007E00A210298FDF755FD3031029007F8E4
:10281000011D0C99481E0C900029F2DC029800283A
:10282000EFD1791E0D980870307800F0200040F04C
:10283000450007F8020D11A8C01BC01D0290139897
:10284000007800B1012000EB0901019801EBE07173
:10285000029801440398401A401E0390E00306D4F6
:1028600053462146179A039800F05CF805441398E4
:10287000007818B15246179990476D1CE00323D594
:1028800053462146179A039800F04CF805441BE084
:10289000BBF1000F07DB0098584504DD109817992D
:1028A00010F80B0001E0179930205246904701982C
:1028B0000BF1010B401E05F10105019004D12E2002
:1028C0005246179990476D1CB9F10001A9F1010911
:1028D000DEDC05E017F8010B5246179990476D1C96
:1028E0000299481E02900029F4DC53462146179AAB
:1028F00003989EE62D0000002B0000002000000041
:102900002DE9F041044600251E461746880404D4EC
:1029100005E039462020B0476D1C641EF9D52846D5
:10292000BDE8F0812DE9F041044600251E469046A1
:10293000C80301D5302700E02027880404D505E02E
:1029400041463846B0476D1C641EF9D52846BDE89F
:10295000F08100009FED1A1AF5EE000A40EE010A20
:10296000BDEEE00AF5EEC00A10EE100AF1EE10FA24
:1029700000D2401E00EE100A1349F7EE001AB8EE1E
:10298000C00A30EEC00ADFED0F0A20EE200AFCEE8E
:10299000C00A10EE900AC0F3080000EE900A01EBA6
:1029A0008000F8EE600A90ED011A70EE600A90ED7A
:1029B000000A71EEE01A21EE800A00EE810A7047EB
:1029C00083F9223E00000044442D0008B5EEC00A01
:1029D000F1EE10FA04D210EE100A1B49884232D9E7
:1029E000B5EEC00ADFED190A60EE200ABDEEE01A6E
:1029F00011EE100AF1EE10FA00D2401E00EE100A9D
:102A00001449F7EE001AB8EEC00A30EEC00ADFED46
:102A1000100A60EE200ABCEEE00A10EE100AC0F3C5
:102A2000080000EE100A01EB8000B8EE400A90EDBD
:102A3000011A70EEC00A90ED000A71EEE01A21EE64
:102A4000800A00EE810A7047CD024CB483F9223E21
:102A500000000044442D000813B564230122694698
:102A60000248FEF777FE00981CBD0000C40000205D
:102A7000FEF712F8FEF7F6FFFEF7C6FEFEF722FF9E
:102A8000FEF77EFFFEF7F8FEFEF7B6FFB1EE040A92
:102A9000FEF794FFFAE70000F0B52DED088BF0EE9D
:102AA000409A85B0F0EE60AAB0EE410AFFF7ACFBA9
:102AB000B0EE40BAFFF74EFF20EE2AAAB0EE4B0A66
:102AC000FFF784FF09EEC0AAB0EE4B0AFFF742FF02
:102AD00060EE299AB0EE4B0AFFF778FF4AEE809A33
:102AE000874890ED000ADFED870A60EE200ADFEDEF
:102AF000861A80EEA11A29EE812ADFED840A6AEE99
:102B0000201AF6EE000A49EEE01A61EE811ADFEDB6
:102B1000802AB5EEC02A6AEE222A49EEE02A22EE89
:102B2000811AF1EE10FA01DD012000E00020F5EE3F
:102B3000C01AF1EE10FA01DD012100E00021B5EE2E
:102B4000C01A00EB4101F1EE10FA01DD012000E0B6
:102B5000002001EB800007281ED2DFE800F0AB1E4A
:102B60008E04563C740031EE821AB4EEC01AF1EEB7
:102B700010FA05DDC0EE012A61EEA21A22EE222A29
:102B800030EE610A30EE420A60EE208A31EE820AAF
:102B900032EE288A30EE289A8CE0F1EE611AB1EE1E
:102BA000411A31EE812AB4EEC02AF1EE10FA05DDA9
:102BB000C0EE022A61EEA21A21EE221A30EE610A5C
:102BC00030EE410A60EE208A31EE810A31EE289A19
:102BD00030EE288A6EE072EE011AF4EEC01AF1EEC1
:102BE00010FA05DDC0EE212A22EE222A21EE221A59
:102BF00030EE420A30EE410A20EE209A32EE010A0F
:102C000071EE098A30EE098A54E0B1EE422AB1EE43
:102C1000611A72EE011AF4EEC01AF1EE10FA05DD37
:102C2000C0EE212A22EE222A21EE221A30EE420A9A
:102C300030EE410A20EE209A32EE010A31EE098A86
:102C400070EE098A36E031EE212AB4EEC02AF1EEA8
:102C500010FA05DDC0EE022A21EE221A61EEA21A58
:102C600030EE410A30EE610A20EE208A31EE210A70
:102C700031EE889A70EE088A1CE0F1EE411AB1EE4E
:102C8000421A31EE812AB4EEC02AF1EE10FA05DDC7
:102C9000C0EE022A61EEA21A21EE221A30EE610A7B
:102CA00030EE410A20EE208A31EE810A71EE088A68
:102CB00030EE089A18EE900AFDF7CDFA06460F4658
:102CC00018EE100AFDF7C7FA04460D4619EE100A71
:102CD000FDF7C1FA8DE8F00041EC100B0DA053ECAC
:102CE000102BFFF707F905B0B0EE681AF0EE480AAE
:102CF000B0EE490ABDEC088BBDE8F040FEF790BE8F
:102D000010000020D7B3DD3F66664641D7B35D3F74
:102D1000D7B35DBF5B54612C54622C54635D3A257C
:102D2000662C25662C25660D0A00000000000000B8
:102D3000000000000102030406070809000000006B
:102D40000102030400000000920E493CB10AC93C94
:102D50002BC3163D2EFB483D752B7B3D04A9963DAC
:102D600080B6AF3D36BDC83D2FBCE13D73B2FA3DE4
:102D700087CF093E8340163EB5AB223EA2102F3EC0
:102D8000CF6E3B3EC2C5473E0115543E135C603ECC
:102D90007F9A6C3ECCCF783EC07D823E938E883E3B
:102DA000229A8E3E32A0943E86A09A3EE59AA03E9C
:102DB000128FA63ED47CAC3EEF63B23E2A44B83EAE
:102DC000491DBE3E15EFC33E53B9C93ECA7BCF3E37
:102DD0004136D53E80E8DA3E4F92E03E7533E63E1E
:102DE000BBCBEB3EEA5AF13ECBE0F63E275DFC3E24
:102DF000E4E7003F3D9C033F824B063F9BF5083FC5
:102E00006B9A0B3FDA390E3FCDD3103F2A68133F40
:102E1000D9F6153FC07F183FC6021B3FD17F1D3F2B
:102E2000CBF61F3F9967223F25D2243F5636273FD6
:102E30001594293F4AEB2B3FDE3B2E3FBB85303FAD
:102E4000C9C8323FF304353F233A373F4268393F20
:102E50003B8F3B3FF9AE3D3F67C73F3F70D8413F97
:102E600001E2433F03E4453F65DE473F12D1493F5E
:102E7000F8BB4B3F029F4D3F207A4F3F3D4D513FA6
:102E80004918533F31DB543FE595563F5348583F6F
:102E90006AF2593F1A945B3F532D5D3F05BE5E3F7A
:102EA0002146603F97C5613F5A3C633F59AA643F42
:102EB000880F663FD86B673F3CBF683FA7096A3FF2
:102EC0000C4B6B3F5E836C3F93B26D3F9ED86E3F61
:102ED00073F56F3F0809713F5213723F4714733FF8
:102EE000DD0B743F0BFA743FC6DE753F07BA763FC1
:102EF000C58B773FF853783F9812793F9DC7793F4C
:102F000002737A3FBE147B3FCDAC7B3F283B7C3FB6
:102F1000C9BF7C3FAC3A7D3FCCAB7D3F23137E3FA6
:102F2000B0707E3F6DC47E3F580E7F3F6D4E7F3F39
:102F3000AB847F3F0FB17F3F97D37F3F43EC7F3F11
:102F400011FB7F3F0000803F11FB7F3F43EC7F3F41
:102F500097D37F3F0FB17F3FAB847F3F6D4E7F3F65
:102F6000580E7F3F6DC47E3FB0707E3F23137E3F7F
:102F7000CCAB7D3FAC3A7D3FC9BF7C3F283B7C3F1B
:102F8000CDAC7B3FBE147B3F02737A3F9DC7793F38
:102F90009812793FF853783FC58B773F07BA763F51
:102FA000C6DE753F0BFA743FDD0B743F4714733F69
:102FB0005213723F0809713F73F56F3F9ED86E3F01
:102FC00093B26D3F5E836C3F0C4B6B3FA7096A3F2A
:102FD0003CBF683FD86B673F880F663F59AA643F84
:102FE0005A3C633F97C5613F2146603F05BE5E3F47
:102FF000532D5D3F1A945B3F6AF2593F5348583F47
:10300000E595563F31DB543F4918533F3D4D513F05
:10301000207A4F3F029F4D3FF8BB4B3F12D1493FB3
:1030200065DE473F03E4453F01E2433F70D8413F3F
:1030300067C73F3FF9AE3D3F3B8F3B3F4268393F5B
:10304000233A373FF304353FC9C8323FBB85303F91
:10305000DE3B2E3F4AEB2B3F1594293F5636273F48
:1030600025D2243F9967223FCBF61F3FD17F1D3FDA
:10307000C6021B3FC07F183FD9F6153F2A68133F91
:10308000CDD3103FDA390E3F6B9A0B3F9BF5083FCB
:10309000824B063F3D9C033FE4E7003F275DFC3E3B
:1030A000CBE0F63EEA5AF13EBBCBEB3E7533E63E53
:1030B0004F92E03E80E8DA3E4136D53ECA7BCF3EB5
:1030C00053B9C93E15EFC33E491DBE3E2A44B83E22
:1030D000EF63B23ED47CAC3E128FA63EE59AA03E92
:1030E00086A09A3E32A0943E229A8E3E938E883ECF
:1030F000C07D823ECCCF783E7F9A6C3E135C603EB2
:103100000115543EC2C5473ECF6E3B3EA2102F3E36
:10311000B5AB223E8340163E87CF093E73B2FA3DDF
:103120002FBCE13D36BDC83D80B6AF3D04A9963DFC
:10313000752B7B3D2EFB483D2BC3163DB10AC93C88
:10314000920E493C00000000920E49BCB10AC9BC75
:103150002BC316BD2EFB48BD752B7BBD04A996BDA8
:1031600080B6AFBD36BDC8BD2FBCE1BD73B2FABDE0
:1031700087CF09BE834016BEB5AB22BEA2102FBEBC
:10318000CF6E3BBEC2C547BE011554BE135C60BEC8
:103190007F9A6CBECCCF78BEC07D82BE938E88BE37
:1031A000229A8EBE32A094BE86A09ABEE59AA0BE98
:1031B000128FA6BED47CACBEEF63B2BE2A44B8BEAA
:1031C000491DBEBE15EFC3BE53B9C9BECA7BCFBE33
:1031D0004136D5BE80E8DABE4F92E0BE7533E6BE1A
:1031E000BBCBEBBEEA5AF1BECBE0F6BE275DFCBE20
:1031F000E4E700BF3D9C03BF824B06BF9BF508BFC1
:103200006B9A0BBFDA390EBFCDD310BF2A6813BF3C
:10321000D9F615BFC07F18BFC6021BBFD17F1DBF27
:10322000CBF61FBF996722BF25D224BF563627BFD2
:10323000159429BF4AEB2BBFDE3B2EBFBB8530BFA9
:10324000C9C832BFF30435BF233A37BF426839BF1C
:103250003B8F3BBFF9AE3DBF67C73FBF70D841BF93
:1032600001E243BF03E445BF65DE47BF12D149BF5A
:10327000F8BB4BBF029F4DBF207A4FBF3D4D51BFA2
:10328000491853BF31DB54BFE59556BF534858BF6B
:103290006AF259BF1A945BBF532D5DBF05BE5EBF76
:1032A000214660BF97C561BF5A3C63BF59AA64BF3E
:1032B000880F66BFD86B67BF3CBF68BFA7096ABFEE
:1032C0000C4B6BBF5E836CBF93B26DBF9ED86EBF5D
:1032D00073F56FBF080971BF521372BF471473BFF4
:1032E000DD0B74BF0BFA74BFC6DE75BF07BA76BFBD
:1032F000C58B77BFF85378BF981279BF9DC779BF48
:1033000002737ABFBE147BBFCDAC7BBF283B7CBFB2
:10331000C9BF7CBFAC3A7DBFCCAB7DBF23137EBFA2
:10332000B0707EBF6DC47EBF580E7FBF6D4E7FBF35
:10333000AB847FBF0FB17FBF97D37FBF43EC7FBF0D
:1033400011FB7FBF000080BF11FB7FBF43EC7FBF3D
:1033500097D37FBF0FB17FBFAB847FBF6D4E7FBF61
:10336000580E7FBF6DC47EBFB0707EBF23137EBF7B
:10337000CCAB7DBFAC3A7DBFC9BF7CBF283B7CBF17
:10338000CDAC7BBFBE147BBF02737ABF9DC779BF34
:10339000981279BFF85378BFC58B77BF07BA76BF4D
:1033A000C6DE75BF0BFA74BFDD0B74BF471473BF65
:1033B000521372BF080971BF73F56FBF9ED86EBFFD
:1033C00093B26DBF5E836CBF0C4B6BBFA7096ABF26
:1033D0003CBF68BFD86B67BF880F66BF59AA64BF80
:1033E0005A3C63BF97C561BF214660BF05BE5EBF43
:1033F000532D5DBF1A945BBF6AF259BF534858BF43
:10340000E59556BF31DB54BF491853BF3D4D51BF01
:10341000207A4FBF029F4DBFF8BB4BBF12D149BFAF
:1034200065DE47BF03E445BF01E243BF70D841BF3B
:1034300067C73FBFF9AE3DBF3B8F3BBF426839BF57
:10344000233A37BFF30435BFC9C832BFBB8530BF8D
:10345000DE3B2EBF4AEB2BBF159429BF563627BF44
:1034600025D224BF996722BFCBF61FBFD17F1DBFD6
:10347000C6021BBFC07F18BFD9F615BF2A6813BF8D
:10348000CDD310BFDA390EBF6B9A0BBF9BF508BFC7
:10349000824B06BF3D9C03BFE4E700BF275DFCBE37
:1034A000CBE0F6BEEA5AF1BEBBCBEBBE7533E6BE4F
:1034B0004F92E0BE80E8DABE4136D5BECA7BCFBEB1
:1034C00053B9C9BE15EFC3BE491DBEBE2A44B8BE1E
:1034D000EF63B2BED47CACBE128FA6BEE59AA0BE8E
:1034E00086A09ABE32A094BE229A8EBE938E88BECB
:1034F000C07D82BECCCF78BE7F9A6CBE135C60BEAE
:10350000011554BEC2C547BECF6E3BBEA2102FBE32
:10351000B5AB22BE834016BE87CF09BE73B2FABDDB
:103520002FBCE1BD36BDC8BD80B6AFBD04A996BDF8
:10353000752B7BBD2EFB48BD2BC316BDB10AC9BC84
:10354000920E49BC00000080683500080000002091
:1035500024000000582000088C35000824000020BA
:10356000E4040000682000080100000010000000D2
:10357000000000000024F4000000803F0000000074
:0C358000CDCCCC3B00000000000000009F
:040000050800019559
:00000001FF
